{
  "_format": "hh-sol-artifact-1",
  "contractName": "Create2Factory",
  "sourceName": "contracts/Create2Factory.sol",
  "abi": [
    {
      "anonymous": false,
      "inputs": [
        {
          "indexed": false,
          "internalType": "address",
          "name": "createdContract",
          "type": "address"
        }
      ],
      "name": "Deployed",
      "type": "event"
    },
    {
      "inputs": [
        {
          "internalType": "bytes",
          "name": "bytecode",
          "type": "bytes"
        },
        {
          "internalType": "bytes32",
          "name": "salt",
          "type": "bytes32"
        }
      ],
      "name": "computeAddress",
      "outputs": [
        {
          "internalType": "address",
          "name": "",
          "type": "address"
        }
      ],
      "stateMutability": "view",
      "type": "function"
    },
    {
      "inputs": [
        {
          "internalType": "bytes",
          "name": "bytecode",
          "type": "bytes"
        },
        {
          "internalType": "bytes32",
          "name": "salt",
          "type": "bytes32"
        }
      ],
      "name": "deploy",
      "outputs": [
        {
          "internalType": "address",
          "name": "",
          "type": "address"
        }
      ],
      "stateMutability": "nonpayable",
      "type": "function"
    }
  ],
  "bytecode": "0x608060405234801561001057600080fd5b506105c4806100206000396000f3fe608060405234801561001057600080fd5b50600436106100365760003560e01c80633e4b9f7a1461003b5780634af63f021461006b575b600080fd5b61005560048036038101906100509190610355565b61009b565b60405161006291906103f2565b60405180910390f35b61008560048036038101906100809190610355565b6100b0565b60405161009291906103f2565b60405180910390f35b60006100a8828430610170565b905092915050565b600080828451602086016000f59050600073ffffffffffffffffffffffffffffffffffffffff168173ffffffffffffffffffffffffffffffffffffffff16141561012f576040517f08c379a00000000000000000000000000000000000000000000000000000000081526004016101269061046a565b60405180910390fd5b7ff40fcec21964ffb566044d083b4073f29f7f7929110ea19e1b3ebe375d89055e8160405161015e91906103f2565b60405180910390a18091505092915050565b60008083805190602001209050600060ff60f81b84878460405160200161019a9493929190610540565b604051602081830303815290604052805190602001209050606081901b60601c925050509392505050565b6000604051905090565b600080fd5b600080fd5b600080fd5b600080fd5b6000601f19601f8301169050919050565b7f4e487b7100000000000000000000000000000000000000000000000000000000600052604160045260246000fd5b61022c826101e3565b810181811067ffffffffffffffff8211171561024b5761024a6101f4565b5b80604052505050565b600061025e6101c5565b905061026a8282610223565b919050565b600067ffffffffffffffff82111561028a576102896101f4565b5b610293826101e3565b9050602081019050919050565b82818337600083830152505050565b60006102c26102bd8461026f565b610254565b9050828152602081018484840111156102de576102dd6101de565b5b6102e98482856102a0565b509392505050565b600082601f830112610306576103056101d9565b5b81356103168482602086016102af565b91505092915050565b6000819050919050565b6103328161031f565b811461033d57600080fd5b50565b60008135905061034f81610329565b92915050565b6000806040838503121561036c5761036b6101cf565b5b600083013567ffffffffffffffff81111561038a576103896101d4565b5b610396858286016102f1565b92505060206103a785828601610340565b9150509250929050565b600073ffffffffffffffffffffffffffffffffffffffff82169050919050565b60006103dc826103b1565b9050919050565b6103ec816103d1565b82525050565b600060208201905061040760008301846103e3565b92915050565b600082825260208201905092915050565b7f437265617465323a204661696c6564206f6e206465706c6f7900000000000000600082015250565b600061045460198361040d565b915061045f8261041e565b602082019050919050565b6000602082019050818103600083015261048381610447565b9050919050565b60007fff0000000000000000000000000000000000000000000000000000000000000082169050919050565b6000819050919050565b6104d16104cc8261048a565b6104b6565b82525050565b60008160601b9050919050565b60006104ef826104d7565b9050919050565b6000610501826104e4565b9050919050565b610519610514826103d1565b6104f6565b82525050565b6000819050919050565b61053a6105358261031f565b61051f565b82525050565b600061054c82876104c0565b60018201915061055c8286610508565b60148201915061056c8285610529565b60208201915061057c8284610529565b6020820191508190509594505050505056fea264697066735822122047201423c2ae46226cf65e1c510d2afcf0fe8bacd27f13a9938fe8964fd4214764736f6c634300080c0033",
  "linkReferences": {},
  "deployedLinkReferences": {}
}