{
  "_format": "hh-sol-artifact-1",
  "contractName": "EntryPoint",
  "sourceName": "contracts/core/EntryPoint.sol",
  "abi": [
    {
      "inputs": [
        {
          "internalType": "uint256",
          "name": "_paymasterStake",
          "type": "uint256"
        },
        {
          "internalType": "uint32",
          "name": "_unstakeDelaySec",
          "type": "uint32"
        }
      ],
      "stateMutability": "nonpayable",
      "type": "constructor"
    },
    {
      "inputs": [
        {
          "internalType": "uint256",
          "name": "opIndex",
          "type": "uint256"
        },
        {
          "internalType": "address",
          "name": "paymaster",
          "type": "address"
        },
        {
          "internalType": "string",
          "name": "reason",
          "type": "string"
        }
      ],
      "name": "FailedOp",
      "type": "error"
    },
    {
      "inputs": [
        {
          "internalType": "address",
          "name": "aggregator",
          "type": "address"
        }
      ],
      "name": "SignatureValidationFailed",
      "type": "error"
    },
    {
      "anonymous": false,
      "inputs": [
        {
          "indexed": true,
          "internalType": "address",
          "name": "account",
          "type": "address"
        },
        {
          "indexed": false,
          "internalType": "uint256",
          "name": "totalDeposit",
          "type": "uint256"
        }
      ],
      "name": "Deposited",
      "type": "event"
    },
    {
      "anonymous": false,
      "inputs": [
        {
          "indexed": true,
          "internalType": "address",
          "name": "account",
          "type": "address"
        },
        {
          "indexed": false,
          "internalType": "uint256",
          "name": "totalStaked",
          "type": "uint256"
        },
        {
          "indexed": false,
          "internalType": "uint256",
          "name": "withdrawTime",
          "type": "uint256"
        }
      ],
      "name": "StakeLocked",
      "type": "event"
    },
    {
      "anonymous": false,
      "inputs": [
        {
          "indexed": true,
          "internalType": "address",
          "name": "account",
          "type": "address"
        },
        {
          "indexed": false,
          "internalType": "uint256",
          "name": "withdrawTime",
          "type": "uint256"
        }
      ],
      "name": "StakeUnlocked",
      "type": "event"
    },
    {
      "anonymous": false,
      "inputs": [
        {
          "indexed": true,
          "internalType": "address",
          "name": "account",
          "type": "address"
        },
        {
          "indexed": false,
          "internalType": "address",
          "name": "withdrawAddress",
          "type": "address"
        },
        {
          "indexed": false,
          "internalType": "uint256",
          "name": "amount",
          "type": "uint256"
        }
      ],
      "name": "StakeWithdrawn",
      "type": "event"
    },
    {
      "anonymous": false,
      "inputs": [
        {
          "indexed": true,
          "internalType": "bytes32",
          "name": "requestId",
          "type": "bytes32"
        },
        {
          "indexed": true,
          "internalType": "address",
          "name": "sender",
          "type": "address"
        },
        {
          "indexed": true,
          "internalType": "address",
          "name": "paymaster",
          "type": "address"
        },
        {
          "indexed": false,
          "internalType": "uint256",
          "name": "nonce",
          "type": "uint256"
        },
        {
          "indexed": false,
          "internalType": "uint256",
          "name": "actualGasCost",
          "type": "uint256"
        },
        {
          "indexed": false,
          "internalType": "uint256",
          "name": "actualGasPrice",
          "type": "uint256"
        },
        {
          "indexed": false,
          "internalType": "bool",
          "name": "success",
          "type": "bool"
        }
      ],
      "name": "UserOperationEvent",
      "type": "event"
    },
    {
      "anonymous": false,
      "inputs": [
        {
          "indexed": true,
          "internalType": "bytes32",
          "name": "requestId",
          "type": "bytes32"
        },
        {
          "indexed": true,
          "internalType": "address",
          "name": "sender",
          "type": "address"
        },
        {
          "indexed": false,
          "internalType": "uint256",
          "name": "nonce",
          "type": "uint256"
        },
        {
          "indexed": false,
          "internalType": "bytes",
          "name": "revertReason",
          "type": "bytes"
        }
      ],
      "name": "UserOperationRevertReason",
      "type": "event"
    },
    {
      "anonymous": false,
      "inputs": [
        {
          "indexed": true,
          "internalType": "address",
          "name": "account",
          "type": "address"
        },
        {
          "indexed": false,
          "internalType": "address",
          "name": "withdrawAddress",
          "type": "address"
        },
        {
          "indexed": false,
          "internalType": "uint256",
          "name": "amount",
          "type": "uint256"
        }
      ],
      "name": "Withdrawn",
      "type": "event"
    },
    {
      "inputs": [
        {
          "internalType": "uint32",
          "name": "_unstakeDelaySec",
          "type": "uint32"
        }
      ],
      "name": "addStake",
      "outputs": [],
      "stateMutability": "payable",
      "type": "function"
    },
    {
      "inputs": [
        {
          "internalType": "address",
          "name": "account",
          "type": "address"
        }
      ],
      "name": "balanceOf",
      "outputs": [
        {
          "internalType": "uint256",
          "name": "",
          "type": "uint256"
        }
      ],
      "stateMutability": "view",
      "type": "function"
    },
    {
      "inputs": [
        {
          "internalType": "address",
          "name": "account",
          "type": "address"
        }
      ],
      "name": "depositTo",
      "outputs": [],
      "stateMutability": "payable",
      "type": "function"
    },
    {
      "inputs": [
        {
          "internalType": "address",
          "name": "",
          "type": "address"
        }
      ],
      "name": "deposits",
      "outputs": [
        {
          "internalType": "uint112",
          "name": "deposit",
          "type": "uint112"
        },
        {
          "internalType": "bool",
          "name": "staked",
          "type": "bool"
        },
        {
          "internalType": "uint112",
          "name": "stake",
          "type": "uint112"
        },
        {
          "internalType": "uint32",
          "name": "unstakeDelaySec",
          "type": "uint32"
        },
        {
          "internalType": "uint64",
          "name": "withdrawTime",
          "type": "uint64"
        }
      ],
      "stateMutability": "view",
      "type": "function"
    },
    {
      "inputs": [
        {
          "internalType": "address",
          "name": "account",
          "type": "address"
        }
      ],
      "name": "getDepositInfo",
      "outputs": [
        {
          "components": [
            {
              "internalType": "uint112",
              "name": "deposit",
              "type": "uint112"
            },
            {
              "internalType": "bool",
              "name": "staked",
              "type": "bool"
            },
            {
              "internalType": "uint112",
              "name": "stake",
              "type": "uint112"
            },
            {
              "internalType": "uint32",
              "name": "unstakeDelaySec",
              "type": "uint32"
            },
            {
              "internalType": "uint64",
              "name": "withdrawTime",
              "type": "uint64"
            }
          ],
          "internalType": "struct IStakeManager.DepositInfo",
          "name": "info",
          "type": "tuple"
        }
      ],
      "stateMutability": "view",
      "type": "function"
    },
    {
      "inputs": [
        {
          "components": [
            {
              "internalType": "address",
              "name": "sender",
              "type": "address"
            },
            {
              "internalType": "uint256",
              "name": "nonce",
              "type": "uint256"
            },
            {
              "internalType": "bytes",
              "name": "initCode",
              "type": "bytes"
            },
            {
              "internalType": "bytes",
              "name": "callData",
              "type": "bytes"
            },
            {
              "internalType": "uint256",
              "name": "callGasLimit",
              "type": "uint256"
            },
            {
              "internalType": "uint256",
              "name": "verificationGasLimit",
              "type": "uint256"
            },
            {
              "internalType": "uint256",
              "name": "preVerificationGas",
              "type": "uint256"
            },
            {
              "internalType": "uint256",
              "name": "maxFeePerGas",
              "type": "uint256"
            },
            {
              "internalType": "uint256",
              "name": "maxPriorityFeePerGas",
              "type": "uint256"
            },
            {
              "internalType": "bytes",
              "name": "paymasterAndData",
              "type": "bytes"
            },
            {
              "internalType": "bytes",
              "name": "signature",
              "type": "bytes"
            }
          ],
          "internalType": "struct UserOperation",
          "name": "userOp",
          "type": "tuple"
        }
      ],
      "name": "getRequestId",
      "outputs": [
        {
          "internalType": "bytes32",
          "name": "",
          "type": "bytes32"
        }
      ],
      "stateMutability": "view",
      "type": "function"
    },
    {
      "inputs": [
        {
          "internalType": "bytes",
          "name": "initCode",
          "type": "bytes"
        }
      ],
      "name": "getSenderAddress",
      "outputs": [
        {
          "internalType": "address",
          "name": "sender",
          "type": "address"
        }
      ],
      "stateMutability": "nonpayable",
      "type": "function"
    },
    {
      "inputs": [
        {
          "internalType": "address",
          "name": "sender",
          "type": "address"
        }
      ],
      "name": "getSenderStorage",
      "outputs": [
        {
          "internalType": "uint256[]",
          "name": "senderStorageCells",
          "type": "uint256[]"
        }
      ],
      "stateMutability": "view",
      "type": "function"
    },
    {
      "inputs": [
        {
          "components": [
            {
              "components": [
                {
                  "internalType": "address",
                  "name": "sender",
                  "type": "address"
                },
                {
                  "internalType": "uint256",
                  "name": "nonce",
                  "type": "uint256"
                },
                {
                  "internalType": "bytes",
                  "name": "initCode",
                  "type": "bytes"
                },
                {
                  "internalType": "bytes",
                  "name": "callData",
                  "type": "bytes"
                },
                {
                  "internalType": "uint256",
                  "name": "callGasLimit",
                  "type": "uint256"
                },
                {
                  "internalType": "uint256",
                  "name": "verificationGasLimit",
                  "type": "uint256"
                },
                {
                  "internalType": "uint256",
                  "name": "preVerificationGas",
                  "type": "uint256"
                },
                {
                  "internalType": "uint256",
                  "name": "maxFeePerGas",
                  "type": "uint256"
                },
                {
                  "internalType": "uint256",
                  "name": "maxPriorityFeePerGas",
                  "type": "uint256"
                },
                {
                  "internalType": "bytes",
                  "name": "paymasterAndData",
                  "type": "bytes"
                },
                {
                  "internalType": "bytes",
                  "name": "signature",
                  "type": "bytes"
                }
              ],
              "internalType": "struct UserOperation[]",
              "name": "userOps",
              "type": "tuple[]"
            },
            {
              "internalType": "contract IAggregator",
              "name": "aggregator",
              "type": "address"
            },
            {
              "internalType": "bytes",
              "name": "signature",
              "type": "bytes"
            }
          ],
          "internalType": "struct IEntryPoint.UserOpsPerAggregator[]",
          "name": "opsPerAggregator",
          "type": "tuple[]"
        },
        {
          "internalType": "address payable",
          "name": "beneficiary",
          "type": "address"
        }
      ],
      "name": "handleAggregatedOps",
      "outputs": [],
      "stateMutability": "nonpayable",
      "type": "function"
    },
    {
      "inputs": [
        {
          "components": [
            {
              "internalType": "address",
              "name": "sender",
              "type": "address"
            },
            {
              "internalType": "uint256",
              "name": "nonce",
              "type": "uint256"
            },
            {
              "internalType": "bytes",
              "name": "initCode",
              "type": "bytes"
            },
            {
              "internalType": "bytes",
              "name": "callData",
              "type": "bytes"
            },
            {
              "internalType": "uint256",
              "name": "callGasLimit",
              "type": "uint256"
            },
            {
              "internalType": "uint256",
              "name": "verificationGasLimit",
              "type": "uint256"
            },
            {
              "internalType": "uint256",
              "name": "preVerificationGas",
              "type": "uint256"
            },
            {
              "internalType": "uint256",
              "name": "maxFeePerGas",
              "type": "uint256"
            },
            {
              "internalType": "uint256",
              "name": "maxPriorityFeePerGas",
              "type": "uint256"
            },
            {
              "internalType": "bytes",
              "name": "paymasterAndData",
              "type": "bytes"
            },
            {
              "internalType": "bytes",
              "name": "signature",
              "type": "bytes"
            }
          ],
          "internalType": "struct UserOperation[]",
          "name": "ops",
          "type": "tuple[]"
        },
        {
          "internalType": "address payable",
          "name": "beneficiary",
          "type": "address"
        }
      ],
      "name": "handleOps",
      "outputs": [],
      "stateMutability": "nonpayable",
      "type": "function"
    },
    {
      "inputs": [
        {
          "internalType": "bytes",
          "name": "callData",
          "type": "bytes"
        },
        {
          "components": [
            {
              "components": [
                {
                  "internalType": "address",
                  "name": "sender",
                  "type": "address"
                },
                {
                  "internalType": "uint256",
                  "name": "nonce",
                  "type": "uint256"
                },
                {
                  "internalType": "uint256",
                  "name": "callGasLimit",
                  "type": "uint256"
                },
                {
                  "internalType": "uint256",
                  "name": "verificationGasLimit",
                  "type": "uint256"
                },
                {
                  "internalType": "uint256",
                  "name": "preVerificationGas",
                  "type": "uint256"
                },
                {
                  "internalType": "address",
                  "name": "paymaster",
                  "type": "address"
                },
                {
                  "internalType": "uint256",
                  "name": "maxFeePerGas",
                  "type": "uint256"
                },
                {
                  "internalType": "uint256",
                  "name": "maxPriorityFeePerGas",
                  "type": "uint256"
                }
              ],
              "internalType": "struct EntryPoint.MemoryUserOp",
              "name": "mUserOp",
              "type": "tuple"
            },
            {
              "internalType": "bytes32",
              "name": "requestId",
              "type": "bytes32"
            },
            {
              "internalType": "uint256",
              "name": "prefund",
              "type": "uint256"
            },
            {
              "internalType": "uint256",
              "name": "contextOffset",
              "type": "uint256"
            },
            {
              "internalType": "uint256",
              "name": "preOpGas",
              "type": "uint256"
            }
          ],
          "internalType": "struct EntryPoint.UserOpInfo",
          "name": "opInfo",
          "type": "tuple"
        },
        {
          "internalType": "bytes",
          "name": "context",
          "type": "bytes"
        }
      ],
      "name": "innerHandleOp",
      "outputs": [
        {
          "internalType": "uint256",
          "name": "actualGasCost",
          "type": "uint256"
        }
      ],
      "stateMutability": "nonpayable",
      "type": "function"
    },
    {
      "inputs": [],
      "name": "paymasterStake",
      "outputs": [
        {
          "internalType": "uint256",
          "name": "",
          "type": "uint256"
        }
      ],
      "stateMutability": "view",
      "type": "function"
    },
    {
      "inputs": [
        {
          "components": [
            {
              "internalType": "address",
              "name": "sender",
              "type": "address"
            },
            {
              "internalType": "uint256",
              "name": "nonce",
              "type": "uint256"
            },
            {
              "internalType": "bytes",
              "name": "initCode",
              "type": "bytes"
            },
            {
              "internalType": "bytes",
              "name": "callData",
              "type": "bytes"
            },
            {
              "internalType": "uint256",
              "name": "callGasLimit",
              "type": "uint256"
            },
            {
              "internalType": "uint256",
              "name": "verificationGasLimit",
              "type": "uint256"
            },
            {
              "internalType": "uint256",
              "name": "preVerificationGas",
              "type": "uint256"
            },
            {
              "internalType": "uint256",
              "name": "maxFeePerGas",
              "type": "uint256"
            },
            {
              "internalType": "uint256",
              "name": "maxPriorityFeePerGas",
              "type": "uint256"
            },
            {
              "internalType": "bytes",
              "name": "paymasterAndData",
              "type": "bytes"
            },
            {
              "internalType": "bytes",
              "name": "signature",
              "type": "bytes"
            }
          ],
          "internalType": "struct UserOperation",
          "name": "userOp",
          "type": "tuple"
        },
        {
          "internalType": "bool",
          "name": "offChainSigCheck",
          "type": "bool"
        }
      ],
      "name": "simulateValidation",
      "outputs": [
        {
          "internalType": "uint256",
          "name": "preOpGas",
          "type": "uint256"
        },
        {
          "internalType": "uint256",
          "name": "prefund",
          "type": "uint256"
        },
        {
          "internalType": "address",
          "name": "actualAggregator",
          "type": "address"
        },
        {
          "internalType": "bytes",
          "name": "sigForUserOp",
          "type": "bytes"
        },
        {
          "internalType": "bytes",
          "name": "sigForAggregation",
          "type": "bytes"
        },
        {
          "internalType": "bytes",
          "name": "offChainSigInfo",
          "type": "bytes"
        }
      ],
      "stateMutability": "nonpayable",
      "type": "function"
    },
    {
      "inputs": [],
      "name": "unlockStake",
      "outputs": [],
      "stateMutability": "nonpayable",
      "type": "function"
    },
    {
      "inputs": [],
      "name": "unstakeDelaySec",
      "outputs": [
        {
          "internalType": "uint32",
          "name": "",
          "type": "uint32"
        }
      ],
      "stateMutability": "view",
      "type": "function"
    },
    {
      "inputs": [
        {
          "internalType": "address payable",
          "name": "withdrawAddress",
          "type": "address"
        }
      ],
      "name": "withdrawStake",
      "outputs": [],
      "stateMutability": "nonpayable",
      "type": "function"
    },
    {
      "inputs": [
        {
          "internalType": "address payable",
          "name": "withdrawAddress",
          "type": "address"
        },
        {
          "internalType": "uint256",
          "name": "withdrawAmount",
          "type": "uint256"
        }
      ],
      "name": "withdrawTo",
      "outputs": [],
      "stateMutability": "nonpayable",
      "type": "function"
    },
    {
      "stateMutability": "payable",
      "type": "receive"
    }
  ],
  "bytecode": "0x60c06040523480156200001157600080fd5b5060405162005ecb38038062005ecb833981810160405281019062000037919062000172565b81818063ffffffff1660808163ffffffff16815250508160a08181525050505060008163ffffffff1611620000a3576040517f08c379a00000000000000000000000000000000000000000000000000000000081526004016200009a906200021a565b60405180910390fd5b60008211620000e9576040517f08c379a0000000000000000000000000000000000000000000000000000000008152600401620000e0906200028c565b60405180910390fd5b5050620002ae565b600080fd5b6000819050919050565b6200010b81620000f6565b81146200011757600080fd5b50565b6000815190506200012b8162000100565b92915050565b600063ffffffff82169050919050565b6200014c8162000131565b81146200015857600080fd5b50565b6000815190506200016c8162000141565b92915050565b600080604083850312156200018c576200018b620000f1565b5b60006200019c858286016200011a565b9250506020620001af858286016200015b565b9150509250929050565b600082825260208201905092915050565b7f696e76616c696420756e7374616b6544656c6179000000000000000000000000600082015250565b600062000202601483620001b9565b91506200020f82620001ca565b602082019050919050565b600060208201905081810360008301526200023581620001f3565b9050919050565b7f696e76616c6964207061796d61737465725374616b6500000000000000000000600082015250565b600062000274601683620001b9565b915062000281826200023c565b602082019050919050565b60006020820190508181036000830152620002a78162000265565b9050919050565b60805160a051615be9620002e260003960008181610661015261094d0152600081816105510152610f4d0152615be96000f3fe6080604052600436106101025760003560e01c80635287ce1211610095578063bb9fe6bf11610064578063bb9fe6bf14610351578063c23a5cea14610368578063ec8b5dbf14610391578063fc7e286d146103ce578063ffb01dd91461040f57610112565b80635287ce121461027e57806370a08231146102bb5780639b249f69146102f8578063b760faf91461033557610112565b80631fad948c116100d15780631fad948c146101d8578063205c287814610201578063390b99781461022a5780634b1d7cf51461025557610112565b80630396cb601461011757806314e726341461013357806317c6a987146101705780631d7327561461019b57610112565b366101125761011033610451565b005b600080fd5b610131600480360381019061012c91906131de565b61050d565b005b34801561013f57600080fd5b5061015a60048036038101906101559190613230565b61090f565b6040516101679190613292565b60405180910390f35b34801561017c57600080fd5b5061018561094b565b60405161019291906132c6565b60405180910390f35b3480156101a757600080fd5b506101c260048036038101906101bd91906135e8565b61096f565b6040516101cf91906132c6565b60405180910390f35b3480156101e457600080fd5b506101ff60048036038101906101fa9190613713565b610b21565b005b34801561020d57600080fd5b5061022860048036038101906102239190613773565b610c5f565b005b34801561023657600080fd5b5061023f610f4b565b60405161024c91906137c2565b60405180910390f35b34801561026157600080fd5b5061027c60048036038101906102779190613833565b610f6f565b005b34801561028a57600080fd5b506102a560048036038101906102a09190613893565b61131f565b6040516102b2919061399e565b60405180910390f35b3480156102c757600080fd5b506102e260048036038101906102dd9190613893565b611472565b6040516102ef91906132c6565b60405180910390f35b34801561030457600080fd5b5061031f600480360381019061031a91906139b9565b6114e7565b60405161032c9190613a15565b60405180910390f35b61034f600480360381019061034a9190613893565b610451565b005b34801561035d57600080fd5b50610366611569565b005b34801561037457600080fd5b5061038f600480360381019061038a9190613a30565b61171e565b005b34801561039d57600080fd5b506103b860048036038101906103b39190613893565b611a2a565b6040516103c59190613b1b565b60405180910390f35b3480156103da57600080fd5b506103f560048036038101906103f09190613893565b611ae6565b604051610406959493929190613b6a565b60405180910390f35b34801561041b57600080fd5b5061043660048036038101906104319190613be9565b611b81565b60405161044896959493929190613ccd565b60405180910390f35b61045b8134611d11565b60008060008373ffffffffffffffffffffffffffffffffffffffff1673ffffffffffffffffffffffffffffffffffffffff16815260200190815260200160002090508173ffffffffffffffffffffffffffffffffffffffff167f2da466a7b24304f47e87fa2e1e5a81b9831ce54fec19055ce277ca2f39ba42c48260000160009054906101000a90046dffffffffffffffffffffffffffff166040516105019190613d7e565b60405180910390a25050565b60008060003373ffffffffffffffffffffffffffffffffffffffff1673ffffffffffffffffffffffffffffffffffffffff16815260200190815260200160002090507f000000000000000000000000000000000000000000000000000000000000000063ffffffff168263ffffffff1610156105be576040517f08c379a00000000000000000000000000000000000000000000000000000000081526004016105b590613df6565b60405180910390fd5b8060010160009054906101000a900463ffffffff1663ffffffff168263ffffffff161015610621576040517f08c379a000000000000000000000000000000000000000000000000000000000815260040161061890613e62565b60405180910390fd5b60003482600001600f9054906101000a90046dffffffffffffffffffffffffffff166dffffffffffffffffffffffffffff1661065d9190613eb1565b90507f00000000000000000000000000000000000000000000000000000000000000008110156106c2576040517f08c379a00000000000000000000000000000000000000000000000000000000081526004016106b990613f53565b60405180910390fd5b6dffffffffffffffffffffffffffff80168110610714576040517f08c379a000000000000000000000000000000000000000000000000000000000815260040161070b90613fbf565b60405180910390fd5b6040518060a001604052808360000160009054906101000a90046dffffffffffffffffffffffffffff166dffffffffffffffffffffffffffff168152602001600115158152602001826dffffffffffffffffffffffffffff1681526020018463ffffffff168152602001600067ffffffffffffffff168152506000803373ffffffffffffffffffffffffffffffffffffffff1673ffffffffffffffffffffffffffffffffffffffff16815260200190815260200160002060008201518160000160006101000a8154816dffffffffffffffffffffffffffff02191690836dffffffffffffffffffffffffffff160217905550602082015181600001600e6101000a81548160ff021916908315150217905550604082015181600001600f6101000a8154816dffffffffffffffffffffffffffff02191690836dffffffffffffffffffffffffffff16021790555060608201518160010160006101000a81548163ffffffff021916908363ffffffff16021790555060808201518160010160046101000a81548167ffffffffffffffff021916908367ffffffffffffffff1602179055509050503373ffffffffffffffffffffffffffffffffffffffff167fa5ae833d0bb1dcd632d98a8b70973e8516812898e19bf27b70071ebc8dc52c018285604051610902929190614010565b60405180910390a2505050565b600061091a82611e21565b304660405160200161092e93929190614039565b604051602081830303815290604052805190602001209050919050565b7f000000000000000000000000000000000000000000000000000000000000000081565b6000805a90503073ffffffffffffffffffffffffffffffffffffffff163373ffffffffffffffffffffffffffffffffffffffff16146109ad57600080fd5b600085600001519050600080898990501115610ab357600080836000015173ffffffffffffffffffffffffffffffffffffffff1684604001518c8c6040516109f69291906140af565b60006040518083038160008787f1925050503d8060008114610a34576040519150601f19603f3d011682016040523d82523d6000602084013e610a39565b606091505b509150915081610ab057600081511115610aab57836000015173ffffffffffffffffffffffffffffffffffffffff1689602001517f1c4fada7374c0a9ee8841fc38afe82932dc0f8e69012e927f061a8bae611a201866020015184604051610aa29291906140c8565b60405180910390a35b600192505b50505b600087608001515a8503019050610b126000838a8a8a8080601f016020809104026020016040519081016040528093929190818152602001838380828437600081840152601f19601f8201169050808301925050505050505085611e3a565b94505050505095945050505050565b600083839050905060008167ffffffffffffffff811115610b4557610b4461335c565b5b604051908082528060200260200182016040528015610b7e57816020015b610b6b613084565b815260200190600190039081610b635790505b50905060005b82811015610be557610bd781878784818110610ba357610ba26140f8565b5b9050602002810190610bb59190614136565b848481518110610bc857610bc76140f8565b5b60200260200101516000612197565b508080600101915050610b84565b506000805b83811015610c4c57610c3b81888884818110610c0957610c086140f8565b5b9050602002810190610c1b9190614136565b858481518110610c2e57610c2d6140f8565b5b6020026020010151612356565b820191508080600101915050610bea565b50610c57848261243d565b505050505050565b60008060003373ffffffffffffffffffffffffffffffffffffffff1673ffffffffffffffffffffffffffffffffffffffff1681526020019081526020016000206040518060a00160405290816000820160009054906101000a90046dffffffffffffffffffffffffffff166dffffffffffffffffffffffffffff166dffffffffffffffffffffffffffff16815260200160008201600e9054906101000a900460ff1615151515815260200160008201600f9054906101000a90046dffffffffffffffffffffffffffff166dffffffffffffffffffffffffffff166dffffffffffffffffffffffffffff1681526020016001820160009054906101000a900463ffffffff1663ffffffff1663ffffffff1681526020016001820160049054906101000a900467ffffffffffffffff1667ffffffffffffffff1667ffffffffffffffff1681525050905080600001516dffffffffffffffffffffffffffff16821115610dfe576040517f08c379a0000000000000000000000000000000000000000000000000000000008152600401610df5906141ab565b60405180910390fd5b8181600001516dffffffffffffffffffffffffffff16610e1e91906141cb565b81600001906dffffffffffffffffffffffffffff1690816dffffffffffffffffffffffffffff16815250503373ffffffffffffffffffffffffffffffffffffffff167fd1c19fbcd4551a5edfb66d43d2e337c04837afda3482b42bdf569a8fccdae5fb8484604051610e91929190614254565b60405180910390a260008373ffffffffffffffffffffffffffffffffffffffff1683604051610ebf906142a3565b60006040518083038185875af1925050503d8060008114610efc576040519150601f19603f3d011682016040523d82523d6000602084013e610f01565b606091505b5050905080610f45576040517f08c379a0000000000000000000000000000000000000000000000000000000008152600401610f3c90614304565b60405180910390fd5b50505050565b7f000000000000000000000000000000000000000000000000000000000000000081565b60008383905090506000805b82811015610fd957858582818110610f9657610f956140f8565b5b9050602002810190610fa89190614324565b8060000190610fb7919061434c565b905082610fc49190613eb1565b91508080610fd1906143af565b915050610f7b565b5060008167ffffffffffffffff811115610ff657610ff561335c565b5b60405190808252806020026020018201604052801561102f57816020015b61101c613084565b8152602001906001900390816110145790505b5090506000805b848110156112185736888883818110611052576110516140f8565b5b90506020028101906110649190614324565b9050366000828060000190611079919061434c565b9150915060008360200160208101906110929190614436565b9050600083839050905060005b81811015611113576110f1888686848181106110be576110bd6140f8565b5b90506020028101906110d09190614136565b8b8b815181106110e3576110e26140f8565b5b602002602001015186612197565b5087806110fd906143af565b985050808061110b906143af565b91505061109f565b50600073ffffffffffffffffffffffffffffffffffffffff168273ffffffffffffffffffffffffffffffffffffffff1614611200578173ffffffffffffffffffffffffffffffffffffffff1663e3563a4f85858880604001906111769190614463565b6040518563ffffffff1660e01b8152600401611195949392919061481d565b60006040518083038186803b1580156111ad57600080fd5b505afa9250505080156111be575060015b6111ff57816040517f86a9f7500000000000000000000000000000000000000000000000000000000081526004016111f69190613a15565b60405180910390fd5b5b50505050508080611210906143af565b915050611036565b50600080915060005b8581101561130a573689898381811061123d5761123c6140f8565b5b905060200281019061124f9190614324565b9050366000828060000190611264919061434c565b91509150600082829050905060005b818110156112f2576112c488858584818110611292576112916140f8565b5b90506020028101906112a49190614136565b8b8b815181106112b7576112b66140f8565b5b6020026020010151612356565b876112cf9190613eb1565b965087806112dc906143af565b98505080806112ea906143af565b915050611273565b50505050508080611302906143af565b915050611221565b50611315868261243d565b5050505050505050565b6113276130bc565b6000808373ffffffffffffffffffffffffffffffffffffffff1673ffffffffffffffffffffffffffffffffffffffff1681526020019081526020016000206040518060a00160405290816000820160009054906101000a90046dffffffffffffffffffffffffffff166dffffffffffffffffffffffffffff166dffffffffffffffffffffffffffff16815260200160008201600e9054906101000a900460ff1615151515815260200160008201600f9054906101000a90046dffffffffffffffffffffffffffff166dffffffffffffffffffffffffffff166dffffffffffffffffffffffffffff1681526020016001820160009054906101000a900463ffffffff1663ffffffff1663ffffffff1681526020016001820160049054906101000a900467ffffffffffffffff1667ffffffffffffffff1667ffffffffffffffff16815250509050919050565b60008060008373ffffffffffffffffffffffffffffffffffffffff1673ffffffffffffffffffffffffffffffffffffffff16815260200190815260200160002060000160009054906101000a90046dffffffffffffffffffffffffffff166dffffffffffffffffffffffffffff169050919050565b60008073ffffffffffffffffffffffffffffffffffffffff163373ffffffffffffffffffffffffffffffffffffffff1614611557576040517f08c379a000000000000000000000000000000000000000000000000000000000815260040161154e906148ca565b60405180910390fd5b6115618383612528565b905092915050565b60008060003373ffffffffffffffffffffffffffffffffffffffff1673ffffffffffffffffffffffffffffffffffffffff168152602001908152602001600020905060008160010160009054906101000a900463ffffffff1663ffffffff161415611609576040517f08c379a000000000000000000000000000000000000000000000000000000000815260040161160090614936565b60405180910390fd5b80600001600e9054906101000a900460ff1661165a576040517f08c379a0000000000000000000000000000000000000000000000000000000008152600401611651906149a2565b60405180910390fd5b60008160010160009054906101000a900463ffffffff1663ffffffff164261168291906149c2565b9050808260010160046101000a81548167ffffffffffffffff021916908367ffffffffffffffff160217905550600082600001600e6101000a81548160ff0219169083151502179055503373ffffffffffffffffffffffffffffffffffffffff167ffa9b3c14cc825c412c9ed81b3ba365a5b459439403f18829e572ed53a4180f0a826040516117129190614a31565b60405180910390a25050565b60008060003373ffffffffffffffffffffffffffffffffffffffff1673ffffffffffffffffffffffffffffffffffffffff1681526020019081526020016000209050600081600001600f9054906101000a90046dffffffffffffffffffffffffffff166dffffffffffffffffffffffffffff169050600081116117d6576040517f08c379a00000000000000000000000000000000000000000000000000000000081526004016117cd90614a98565b60405180910390fd5b60008260010160049054906101000a900467ffffffffffffffff1667ffffffffffffffff161161183b576040517f08c379a000000000000000000000000000000000000000000000000000000000815260040161183290614b04565b60405180910390fd5b428260010160049054906101000a900467ffffffffffffffff1667ffffffffffffffff1611156118a0576040517f08c379a000000000000000000000000000000000000000000000000000000000815260040161189790614b70565b60405180910390fd5b60008260010160006101000a81548163ffffffff021916908363ffffffff16021790555060008260010160046101000a81548167ffffffffffffffff021916908367ffffffffffffffff160217905550600082600001600f6101000a8154816dffffffffffffffffffffffffffff02191690836dffffffffffffffffffffffffffff1602179055503373ffffffffffffffffffffffffffffffffffffffff167fb7c918e0e249f999e965cafeb6c664271b3f4317d296461500e71da39f0cbda38483604051611970929190614254565b60405180910390a260008373ffffffffffffffffffffffffffffffffffffffff168260405161199e906142a3565b60006040518083038185875af1925050503d80600081146119db576040519150601f19603f3d011682016040523d82523d6000602084013e6119e0565b606091505b5050905080611a24576040517f08c379a0000000000000000000000000000000000000000000000000000000008152600401611a1b90614bdc565b60405180910390fd5b50505050565b60606000806000808573ffffffffffffffffffffffffffffffffffffffff1673ffffffffffffffffffffffffffffffffffffffff1681526020019081526020016000209050809150600167ffffffffffffffff811115611a8d57611a8c61335c565b5b604051908082528060200260200182016040528015611abb5781602001602082028036833780820191505090505b5092508183600081518110611ad357611ad26140f8565b5b6020026020010181815250505050919050565b60006020528060005260406000206000915090508060000160009054906101000a90046dffffffffffffffffffffffffffff169080600001600e9054906101000a900460ff169080600001600f9054906101000a90046dffffffffffffffffffffffffffff16908060010160009054906101000a900463ffffffff16908060010160049054906101000a900467ffffffffffffffff16905085565b6000806000606080606060005a9050611b98613084565b611ba660008b836001612197565b9550806040015196508960c001355a83611bc091906141cb565b611bca9190613eb1565b9750611bd461260a565b600073ffffffffffffffffffffffffffffffffffffffff168673ffffffffffffffffffffffffffffffffffffffff1614611c96578573ffffffffffffffffffffffffffffffffffffffff16636076d43a8b8b6040518363ffffffff1660e01b8152600401611c43929190614d60565b600060405180830381865afa158015611c60573d6000803e3d6000fd5b505050506040513d6000823e3d601f19601f82011682018060405250810190611c899190614e36565b8095508196508297505050505b600073ffffffffffffffffffffffffffffffffffffffff163373ffffffffffffffffffffffffffffffffffffffff1614611d05576040517f08c379a0000000000000000000000000000000000000000000000000000000008152600401611cfc906148ca565b60405180910390fd5b50509295509295509295565b60008060008473ffffffffffffffffffffffffffffffffffffffff1673ffffffffffffffffffffffffffffffffffffffff16815260200190815260200160002090506000828260000160009054906101000a90046dffffffffffffffffffffffffffff166dffffffffffffffffffffffffffff16611d8f9190613eb1565b90506dffffffffffffffffffffffffffff8016811115611de4576040517f08c379a0000000000000000000000000000000000000000000000000000000008152600401611ddb90614f29565b60405180910390fd5b808260000160006101000a8154816dffffffffffffffffffffffffffff02191690836dffffffffffffffffffffffffffff16021790555050505050565b6000611e2c82612610565b805190602001209050919050565b6000805a9050600080866000015190506000611e5582612652565b905060008260a001519050600073ffffffffffffffffffffffffffffffffffffffff168173ffffffffffffffffffffffffffffffffffffffff161415611ea15782600001519350612075565b809350600088511115612074578187029550600280811115611ec657611ec5614f49565b5b8a6002811115611ed957611ed8614f49565b5b14611f58578073ffffffffffffffffffffffffffffffffffffffff1663a9a2340984606001518c8b8a6040518563ffffffff1660e01b8152600401611f2093929190614fc0565b600060405180830381600088803b158015611f3a57600080fd5b5087f1158015611f4e573d6000803e3d6000fd5b5050505050612073565b8073ffffffffffffffffffffffffffffffffffffffff1663a9a2340984606001518c8b8a6040518563ffffffff1660e01b8152600401611f9a93929190614fc0565b600060405180830381600088803b158015611fb457600080fd5b5087f193505050508015611fc6575060015b61207257611fd261500b565b806308c379a014156120325750611fe761502d565b80611ff25750612034565b8b82826040517efa072b00000000000000000000000000000000000000000000000000000000815260040161202993929190615107565b60405180910390fd5b505b8a816040517efa072b000000000000000000000000000000000000000000000000000000008152600401612069929190615191565b60405180910390fd5b5b5b5b5a850387019650818702955085896040015110156120cb578a816040517efa072b0000000000000000000000000000000000000000000000000000000081526004016120c2929190615219565b60405180910390fd5b6000868a604001510390506120e08582611d11565b60008060028111156120f5576120f4614f49565b5b8c600281111561210857612107614f49565b5b1490508460a0015173ffffffffffffffffffffffffffffffffffffffff16856000015173ffffffffffffffffffffffffffffffffffffffff168c602001517f33fd4d1f25a5461bea901784a6571de6debc16cd0831932c22c6969cd73ba99488602001518c898760405161217f9493929190615255565b60405180910390a45050505050505095945050505050565b6000805a90506000846000015190506121b0868261268d565b6121b98661090f565b85602001818152505060008661010001358760e001358360400151846060015185608001511717171790506effffffffffffffffffffffffffffff8016811115612238576040517f08c379a000000000000000000000000000000000000000000000000000000000815260040161222f906152e6565b60405180910390fd5b60008061224484612835565b90506122538a8a8a8a856128ab565b809750819350505061226361260a565b6060600073ffffffffffffffffffffffffffffffffffffffff168560a0015173ffffffffffffffffffffffffffffffffffffffff16146122b1576122aa8b8b8b8587612c5d565b90506122c4565b6040518060200160405280600081525090505b60005a87039050808b60a001351015612319578b8660a001516040517efa072b000000000000000000000000000000000000000000000000000000008152600401612310929190615378565b60405180910390fd5b828a604001818152505061232c82612f0c565b8a60600181815250508a60c001355a8803018a608001818152505050505050505050949350505050565b6000805a9050600061236b8460600151612f16565b90503073ffffffffffffffffffffffffffffffffffffffff16631d7327568680606001906123999190614463565b87856040518563ffffffff1660e01b81526004016123ba94939291906154d2565b6020604051808303816000875af19250505080156123f657506040513d601f19601f820116820180604052508101906123f39190615530565b60015b61242f57600084608001515a8461240d91906141cb565b6124179190613eb1565b9050612427876002878585611e3a565b935050612434565b809350505b50509392505050565b600073ffffffffffffffffffffffffffffffffffffffff168273ffffffffffffffffffffffffffffffffffffffff1614156124ad576040517f08c379a00000000000000000000000000000000000000000000000000000000081526004016124a4906155a9565b60405180910390fd5b60008273ffffffffffffffffffffffffffffffffffffffff16826040516124d3906142a3565b60006040518083038185875af1925050503d8060008114612510576040519150601f19603f3d011682016040523d82523d6000602084013e612515565b606091505b505090508061252357600080fd5b505050565b600080838360009060149261253f939291906155d3565b9061254a9190615652565b60601c9050600084846014908092612564939291906155d3565b8080601f016020809104026020016040519081016040528093929190818152602001838380828437600081840152601f19601f8201169050808301925050505050505090506000602060008351602085016000875af19050600051935080612601576040517f08c379a00000000000000000000000000000000000000000000000000000000081526004016125f8906156fd565b60405180910390fd5b50505092915050565b43600052565b6060366000838061014001906126269190614463565b915091508360208184030360405194506020810185016040528085528082602087013750505050919050565b6000808260c00151905060008360e00151905080821415612677578192505050612688565b61268382488301612f20565b925050505b919050565b8160000160208101906126a09190613893565b816000019073ffffffffffffffffffffffffffffffffffffffff16908173ffffffffffffffffffffffffffffffffffffffff1681525050816020013581602001818152505081608001358160400181815250508160a001358160600181815250508160c001358160800181815250508160e001358160c00181815250508161010001358160e0018181525050366000838061012001906127409190614463565b9150915060008282905011156127f5576014828290501015612797576040517f08c379a000000000000000000000000000000000000000000000000000000000815260040161278e90615769565b60405180910390fd5b81816000906014926127ab939291906155d3565b906127b69190615652565b60601c8360a0019073ffffffffffffffffffffffffffffffffffffffff16908173ffffffffffffffffffffffffffffffffffffffff168152505061282f565b60008360a0019073ffffffffffffffffffffffffffffffffffffffff16908173ffffffffffffffffffffffffffffffffffffffff16815250505b50505050565b600080600073ffffffffffffffffffffffffffffffffffffffff168360a0015173ffffffffffffffffffffffffffffffffffffffff16141561287857600161287b565b60035b60ff16905060008360800151828560600151028560400151010190506128a084612652565b810292505050919050565b60008060005a90506000866000015190506128d5818980604001906128d09190614463565b612f39565b600173ffffffffffffffffffffffffffffffffffffffff168673ffffffffffffffffffffffffffffffffffffffff16141561298f57806000015173ffffffffffffffffffffffffffffffffffffffff16633ad59dbc6040518163ffffffff1660e01b8152600401602060405180830381865afa92505050801561297657506040513d601f19601f82011682018060405250810190612973919061579e565b60015b612986576000925082955061298e565b809350839650505b5b6000808260000151905060008360a001519050600073ffffffffffffffffffffffffffffffffffffffff168173ffffffffffffffffffffffffffffffffffffffff1614156129fa5760006129e283611472565b90508881116129f3578089036129f6565b60005b9350505b8173ffffffffffffffffffffffffffffffffffffffff16630825d1fc85606001518d8d602001518d886040518663ffffffff1660e01b8152600401612a4294939291906157cb565b600060405180830381600088803b158015612a5c57600080fd5b5087f193505050508015612a6e575060015b612b1c57612a7a61500b565b806308c379a01415612adb5750612a8f61502d565b80612a9a5750612add565b8c6000826040517efa072b000000000000000000000000000000000000000000000000000000008152600401612ad293929190615107565b60405180910390fd5b505b8b60006040517efa072b000000000000000000000000000000000000000000000000000000008152600401612b1392919061583a565b60405180910390fd5b600073ffffffffffffffffffffffffffffffffffffffff168173ffffffffffffffffffffffffffffffffffffffff161415612c495760008060008473ffffffffffffffffffffffffffffffffffffffff1673ffffffffffffffffffffffffffffffffffffffff168152602001908152602001600020905060008160000160009054906101000a90046dffffffffffffffffffffffffffff166dffffffffffffffffffffffffffff169050808a1115612c0d578d60006040517efa072b000000000000000000000000000000000000000000000000000000008152600401612c049291906158c2565b60405180910390fd5b8981038260000160006101000a8154816dffffffffffffffffffffffffffff02191690836dffffffffffffffffffffffffffff16021790555050505b5a8503965050505050509550959350505050565b606060008460000151905060008160a00151905060008060008373ffffffffffffffffffffffffffffffffffffffff1673ffffffffffffffffffffffffffffffffffffffff168152602001908152602001600020905060008160000160009054906101000a90046dffffffffffffffffffffffffffff166dffffffffffffffffffffffffffff169050600082600001600e9054906101000a900460ff16905080612d3f578a846040517efa072b000000000000000000000000000000000000000000000000000000008152600401612d369291906158fe565b60405180910390fd5b87821015612d85578a846040517efa072b000000000000000000000000000000000000000000000000000000008152600401612d7c929190615986565b60405180910390fd5b8782038360000160006101000a8154816dffffffffffffffffffffffffffff02191690836dffffffffffffffffffffffffffff16021790555060008786606001510390508473ffffffffffffffffffffffffffffffffffffffff1663f465c77e828d8d602001518d6040518563ffffffff1660e01b8152600401612e0b939291906159c2565b60006040518083038160008887f193505050508015612e4d57506040513d6000823e3d601f19601f82011682018060405250810190612e4a9190615a00565b60015b612ef957612e5961500b565b806308c379a01415612eb95750612e6e61502d565b80612e795750612ebb565b8c86826040517efa072b000000000000000000000000000000000000000000000000000000008152600401612eb093929190615107565b60405180910390fd5b505b8b856040517efa072b000000000000000000000000000000000000000000000000000000008152600401612ef092919061583a565b60405180910390fd5b8097505050505050505095945050505050565b6000819050919050565b6060819050919050565b6000818310612f2f5781612f31565b825b905092915050565b6000828290501461307f576000836000015173ffffffffffffffffffffffffffffffffffffffff163b14612fa2576040517f08c379a0000000000000000000000000000000000000000000000000000000008152600401612f9990615a95565b60405180910390fd5b6000612fae8383612528565b9050836000015173ffffffffffffffffffffffffffffffffffffffff168173ffffffffffffffffffffffffffffffffffffffff1614613022576040517f08c379a000000000000000000000000000000000000000000000000000000000815260040161301990615b27565b60405180910390fd5b60008173ffffffffffffffffffffffffffffffffffffffff163b141561307d576040517f08c379a000000000000000000000000000000000000000000000000000000000815260040161307490615b93565b60405180910390fd5b505b505050565b6040518060a0016040528061309761311d565b8152602001600080191681526020016000815260200160008152602001600081525090565b6040518060a0016040528060006dffffffffffffffffffffffffffff16815260200160001515815260200160006dffffffffffffffffffffffffffff168152602001600063ffffffff168152602001600067ffffffffffffffff1681525090565b604051806101000160405280600073ffffffffffffffffffffffffffffffffffffffff16815260200160008152602001600081526020016000815260200160008152602001600073ffffffffffffffffffffffffffffffffffffffff16815260200160008152602001600081525090565b6000604051905090565b600080fd5b600080fd5b600063ffffffff82169050919050565b6131bb816131a2565b81146131c657600080fd5b50565b6000813590506131d8816131b2565b92915050565b6000602082840312156131f4576131f3613198565b5b6000613202848285016131c9565b91505092915050565b600080fd5b600061016082840312156132275761322661320b565b5b81905092915050565b60006020828403121561324657613245613198565b5b600082013567ffffffffffffffff8111156132645761326361319d565b5b61327084828501613210565b91505092915050565b6000819050919050565b61328c81613279565b82525050565b60006020820190506132a76000830184613283565b92915050565b6000819050919050565b6132c0816132ad565b82525050565b60006020820190506132db60008301846132b7565b92915050565b600080fd5b600080fd5b600080fd5b60008083601f840112613306576133056132e1565b5b8235905067ffffffffffffffff811115613323576133226132e6565b5b60208301915083600182028301111561333f5761333e6132eb565b5b9250929050565b600080fd5b6000601f19601f8301169050919050565b7f4e487b7100000000000000000000000000000000000000000000000000000000600052604160045260246000fd5b6133948261334b565b810181811067ffffffffffffffff821117156133b3576133b261335c565b5b80604052505050565b60006133c661318e565b90506133d2828261338b565b919050565b600073ffffffffffffffffffffffffffffffffffffffff82169050919050565b6000613402826133d7565b9050919050565b613412816133f7565b811461341d57600080fd5b50565b60008135905061342f81613409565b92915050565b61343e816132ad565b811461344957600080fd5b50565b60008135905061345b81613435565b92915050565b6000610100828403121561347857613477613346565b5b6134836101006133bc565b9050600061349384828501613420565b60008301525060206134a78482850161344c565b60208301525060406134bb8482850161344c565b60408301525060606134cf8482850161344c565b60608301525060806134e38482850161344c565b60808301525060a06134f784828501613420565b60a08301525060c061350b8482850161344c565b60c08301525060e061351f8482850161344c565b60e08301525092915050565b61353481613279565b811461353f57600080fd5b50565b6000813590506135518161352b565b92915050565b6000610180828403121561356e5761356d613346565b5b61357860a06133bc565b9050600061358884828501613461565b60008301525061010061359d84828501613542565b6020830152506101206135b28482850161344c565b6040830152506101406135c78482850161344c565b6060830152506101606135dc8482850161344c565b60808301525092915050565b60008060008060006101c0868803121561360557613604613198565b5b600086013567ffffffffffffffff8111156136235761362261319d565b5b61362f888289016132f0565b9550955050602061364288828901613557565b9350506101a086013567ffffffffffffffff8111156136645761366361319d565b5b613670888289016132f0565b92509250509295509295909350565b60008083601f840112613695576136946132e1565b5b8235905067ffffffffffffffff8111156136b2576136b16132e6565b5b6020830191508360208202830111156136ce576136cd6132eb565b5b9250929050565b60006136e0826133d7565b9050919050565b6136f0816136d5565b81146136fb57600080fd5b50565b60008135905061370d816136e7565b92915050565b60008060006040848603121561372c5761372b613198565b5b600084013567ffffffffffffffff81111561374a5761374961319d565b5b6137568682870161367f565b93509350506020613769868287016136fe565b9150509250925092565b6000806040838503121561378a57613789613198565b5b6000613798858286016136fe565b92505060206137a98582860161344c565b9150509250929050565b6137bc816131a2565b82525050565b60006020820190506137d760008301846137b3565b92915050565b60008083601f8401126137f3576137f26132e1565b5b8235905067ffffffffffffffff8111156138105761380f6132e6565b5b60208301915083602082028301111561382c5761382b6132eb565b5b9250929050565b60008060006040848603121561384c5761384b613198565b5b600084013567ffffffffffffffff81111561386a5761386961319d565b5b613876868287016137dd565b93509350506020613889868287016136fe565b9150509250925092565b6000602082840312156138a9576138a8613198565b5b60006138b784828501613420565b91505092915050565b60006dffffffffffffffffffffffffffff82169050919050565b6138e3816138c0565b82525050565b60008115159050919050565b6138fe816138e9565b82525050565b61390d816131a2565b82525050565b600067ffffffffffffffff82169050919050565b61393081613913565b82525050565b60a08201600082015161394c60008501826138da565b50602082015161395f60208501826138f5565b50604082015161397260408501826138da565b5060608201516139856060850182613904565b5060808201516139986080850182613927565b50505050565b600060a0820190506139b36000830184613936565b92915050565b600080602083850312156139d0576139cf613198565b5b600083013567ffffffffffffffff8111156139ee576139ed61319d565b5b6139fa858286016132f0565b92509250509250929050565b613a0f816133f7565b82525050565b6000602082019050613a2a6000830184613a06565b92915050565b600060208284031215613a4657613a45613198565b5b6000613a54848285016136fe565b91505092915050565b600081519050919050565b600082825260208201905092915050565b6000819050602082019050919050565b613a92816132ad565b82525050565b6000613aa48383613a89565b60208301905092915050565b6000602082019050919050565b6000613ac882613a5d565b613ad28185613a68565b9350613add83613a79565b8060005b83811015613b0e578151613af58882613a98565b9750613b0083613ab0565b925050600181019050613ae1565b5085935050505092915050565b60006020820190508181036000830152613b358184613abd565b905092915050565b613b46816138c0565b82525050565b613b55816138e9565b82525050565b613b6481613913565b82525050565b600060a082019050613b7f6000830188613b3d565b613b8c6020830187613b4c565b613b996040830186613b3d565b613ba660608301856137b3565b613bb36080830184613b5b565b9695505050505050565b613bc6816138e9565b8114613bd157600080fd5b50565b600081359050613be381613bbd565b92915050565b60008060408385031215613c0057613bff613198565b5b600083013567ffffffffffffffff811115613c1e57613c1d61319d565b5b613c2a85828601613210565b9250506020613c3b85828601613bd4565b9150509250929050565b600081519050919050565b600082825260208201905092915050565b60005b83811015613c7f578082015181840152602081019050613c64565b83811115613c8e576000848401525b50505050565b6000613c9f82613c45565b613ca98185613c50565b9350613cb9818560208601613c61565b613cc28161334b565b840191505092915050565b600060c082019050613ce260008301896132b7565b613cef60208301886132b7565b613cfc6040830187613a06565b8181036060830152613d0e8186613c94565b90508181036080830152613d228185613c94565b905081810360a0830152613d368184613c94565b9050979650505050505050565b6000819050919050565b6000613d68613d63613d5e846138c0565b613d43565b6132ad565b9050919050565b613d7881613d4d565b82525050565b6000602082019050613d936000830184613d6f565b92915050565b600082825260208201905092915050565b7f756e7374616b652064656c617920746f6f206c6f770000000000000000000000600082015250565b6000613de0601583613d99565b9150613deb82613daa565b602082019050919050565b60006020820190508181036000830152613e0f81613dd3565b9050919050565b7f63616e6e6f7420646563726561736520756e7374616b652074696d6500000000600082015250565b6000613e4c601c83613d99565b9150613e5782613e16565b602082019050919050565b60006020820190508181036000830152613e7b81613e3f565b9050919050565b7f4e487b7100000000000000000000000000000000000000000000000000000000600052601160045260246000fd5b6000613ebc826132ad565b9150613ec7836132ad565b9250827fffffffffffffffffffffffffffffffffffffffffffffffffffffffffffffffff03821115613efc57613efb613e82565b5b828201905092915050565b7f7374616b652076616c756520746f6f206c6f7700000000000000000000000000600082015250565b6000613f3d601383613d99565b9150613f4882613f07565b602082019050919050565b60006020820190508181036000830152613f6c81613f30565b9050919050565b7f7374616b65206f766572666c6f77000000000000000000000000000000000000600082015250565b6000613fa9600e83613d99565b9150613fb482613f73565b602082019050919050565b60006020820190508181036000830152613fd881613f9c565b9050919050565b6000613ffa613ff5613ff0846131a2565b613d43565b6132ad565b9050919050565b61400a81613fdf565b82525050565b600060408201905061402560008301856132b7565b6140326020830184614001565b9392505050565b600060608201905061404e6000830186613283565b61405b6020830185613a06565b61406860408301846132b7565b949350505050565b600081905092915050565b82818337600083830152505050565b60006140968385614070565b93506140a383858461407b565b82840190509392505050565b60006140bc82848661408a565b91508190509392505050565b60006040820190506140dd60008301856132b7565b81810360208301526140ef8184613c94565b90509392505050565b7f4e487b7100000000000000000000000000000000000000000000000000000000600052603260045260246000fd5b600080fd5b600080fd5b600080fd5b6000823560016101600383360303811261415357614152614127565b5b80830191505092915050565b7f576974686472617720616d6f756e7420746f6f206c6172676500000000000000600082015250565b6000614195601983613d99565b91506141a08261415f565b602082019050919050565b600060208201905081810360008301526141c481614188565b9050919050565b60006141d6826132ad565b91506141e1836132ad565b9250828210156141f4576141f3613e82565b5b828203905092915050565b600061421a614215614210846133d7565b613d43565b6133d7565b9050919050565b600061422c826141ff565b9050919050565b600061423e82614221565b9050919050565b61424e81614233565b82525050565b60006040820190506142696000830185614245565b61427660208301846132b7565b9392505050565b50565b600061428d600083614070565b91506142988261427d565b600082019050919050565b60006142ae82614280565b9150819050919050565b7f6661696c656420746f2077697468647261770000000000000000000000000000600082015250565b60006142ee601283613d99565b91506142f9826142b8565b602082019050919050565b6000602082019050818103600083015261431d816142e1565b9050919050565b6000823560016060038336030381126143405761433f614127565b5b80830191505092915050565b6000808335600160200384360303811261436957614368614127565b5b80840192508235915067ffffffffffffffff82111561438b5761438a61412c565b5b6020830192506020820236038313156143a7576143a6614131565b5b509250929050565b60006143ba826132ad565b91507fffffffffffffffffffffffffffffffffffffffffffffffffffffffffffffffff8214156143ed576143ec613e82565b5b600182019050919050565b6000614403826133f7565b9050919050565b614413816143f8565b811461441e57600080fd5b50565b6000813590506144308161440a565b92915050565b60006020828403121561444c5761444b613198565b5b600061445a84828501614421565b91505092915050565b600080833560016020038436030381126144805761447f614127565b5b80840192508235915067ffffffffffffffff8211156144a2576144a161412c565b5b6020830192506001820236038313156144be576144bd614131565b5b509250929050565b600082825260208201905092915050565b6000819050919050565b60006144f06020840184613420565b905092915050565b614501816133f7565b82525050565b6000614516602084018461344c565b905092915050565b600080fd5b600080fd5b600080fd5b6000808335600160200384360303811261454a57614549614528565b5b83810192508235915060208301925067ffffffffffffffff8211156145725761457161451e565b5b60018202360384131561458857614587614523565b5b509250929050565b600082825260208201905092915050565b60006145ad8385614590565b93506145ba83858461407b565b6145c38361334b565b840190509392505050565b600061016083016145e260008401846144e1565b6145ef60008601826144f8565b506145fd6020840184614507565b61460a6020860182613a89565b50614618604084018461452d565b858303604087015261462b8382846145a1565b9250505061463c606084018461452d565b858303606087015261464f8382846145a1565b925050506146606080840184614507565b61466d6080860182613a89565b5061467b60a0840184614507565b61468860a0860182613a89565b5061469660c0840184614507565b6146a360c0860182613a89565b506146b160e0840184614507565b6146be60e0860182613a89565b506146cd610100840184614507565b6146db610100860182613a89565b506146ea61012084018461452d565b8583036101208701526146fe8382846145a1565b9250505061471061014084018461452d565b8583036101408701526147248382846145a1565b925050508091505092915050565b600061473e83836145ce565b905092915050565b6000823560016101600383360303811261476357614762614528565b5b82810191505092915050565b6000602082019050919050565b600061478883856144c6565b93508360208402850161479a846144d7565b8060005b878110156147de5784840389526147b58284614746565b6147bf8582614732565b94506147ca8361476f565b925060208a0199505060018101905061479e565b50829750879450505050509392505050565b60006147fc8385613c50565b935061480983858461407b565b6148128361334b565b840190509392505050565b6000604082019050818103600083015261483881868861477c565b9050818103602083015261484d8184866147f0565b905095945050505050565b7f6d7573742062652063616c6c6564206f66662d636861696e207769746820667260008201527f6f6d3d7a65726f2d616464720000000000000000000000000000000000000000602082015250565b60006148b4602c83613d99565b91506148bf82614858565b604082019050919050565b600060208201905081810360008301526148e3816148a7565b9050919050565b7f6e6f74207374616b656400000000000000000000000000000000000000000000600082015250565b6000614920600a83613d99565b915061492b826148ea565b602082019050919050565b6000602082019050818103600083015261494f81614913565b9050919050565b7f616c726561647920756e7374616b696e67000000000000000000000000000000600082015250565b600061498c601183613d99565b915061499782614956565b602082019050919050565b600060208201905081810360008301526149bb8161497f565b9050919050565b60006149cd82613913565b91506149d883613913565b92508267ffffffffffffffff038211156149f5576149f4613e82565b5b828201905092915050565b6000614a1b614a16614a1184613913565b613d43565b6132ad565b9050919050565b614a2b81614a00565b82525050565b6000602082019050614a466000830184614a22565b92915050565b7f4e6f207374616b6520746f207769746864726177000000000000000000000000600082015250565b6000614a82601483613d99565b9150614a8d82614a4c565b602082019050919050565b60006020820190508181036000830152614ab181614a75565b9050919050565b7f6d7573742063616c6c20756e6c6f636b5374616b652829206669727374000000600082015250565b6000614aee601d83613d99565b9150614af982614ab8565b602082019050919050565b60006020820190508181036000830152614b1d81614ae1565b9050919050565b7f5374616b65207769746864726177616c206973206e6f74206475650000000000600082015250565b6000614b5a601b83613d99565b9150614b6582614b24565b602082019050919050565b60006020820190508181036000830152614b8981614b4d565b9050919050565b7f6661696c656420746f207769746864726177207374616b650000000000000000600082015250565b6000614bc6601883613d99565b9150614bd182614b90565b602082019050919050565b60006020820190508181036000830152614bf581614bb9565b9050919050565b60006101608301614c1060008401846144e1565b614c1d60008601826144f8565b50614c2b6020840184614507565b614c386020860182613a89565b50614c46604084018461452d565b8583036040870152614c598382846145a1565b92505050614c6a606084018461452d565b8583036060870152614c7d8382846145a1565b92505050614c8e6080840184614507565b614c9b6080860182613a89565b50614ca960a0840184614507565b614cb660a0860182613a89565b50614cc460c0840184614507565b614cd160c0860182613a89565b50614cdf60e0840184614507565b614cec60e0860182613a89565b50614cfb610100840184614507565b614d09610100860182613a89565b50614d1861012084018461452d565b858303610120870152614d2c8382846145a1565b92505050614d3e61014084018461452d565b858303610140870152614d528382846145a1565b925050508091505092915050565b60006040820190508181036000830152614d7a8185614bfc565b9050614d896020830184613b4c565b9392505050565b600080fd5b600067ffffffffffffffff821115614db057614daf61335c565b5b614db98261334b565b9050602081019050919050565b6000614dd9614dd484614d95565b6133bc565b905082815260208101848484011115614df557614df4614d90565b5b614e00848285613c61565b509392505050565b600082601f830112614e1d57614e1c6132e1565b5b8151614e2d848260208601614dc6565b91505092915050565b600080600060608486031215614e4f57614e4e613198565b5b600084015167ffffffffffffffff811115614e6d57614e6c61319d565b5b614e7986828701614e08565b935050602084015167ffffffffffffffff811115614e9a57614e9961319d565b5b614ea686828701614e08565b925050604084015167ffffffffffffffff811115614ec757614ec661319d565b5b614ed386828701614e08565b9150509250925092565b7f6465706f736974206f766572666c6f7700000000000000000000000000000000600082015250565b6000614f13601083613d99565b9150614f1e82614edd565b602082019050919050565b60006020820190508181036000830152614f4281614f06565b9050919050565b7f4e487b7100000000000000000000000000000000000000000000000000000000600052602160045260246000fd5b60038110614f8957614f88614f49565b5b50565b6000819050614f9a82614f78565b919050565b6000614faa82614f8c565b9050919050565b614fba81614f9f565b82525050565b6000606082019050614fd56000830186614fb1565b8181036020830152614fe78185613c94565b9050614ff660408301846132b7565b949350505050565b60008160e01c9050919050565b600060033d111561502a5760046000803e615027600051614ffe565b90505b90565b600060443d101561503d576150c0565b61504561318e565b60043d036004823e80513d602482011167ffffffffffffffff8211171561506d5750506150c0565b808201805167ffffffffffffffff81111561508b57505050506150c0565b80602083010160043d0385018111156150a85750505050506150c0565b6150b78260200185018661338b565b82955050505050505b90565b600081519050919050565b60006150d9826150c3565b6150e38185613d99565b93506150f3818560208601613c61565b6150fc8161334b565b840191505092915050565b600060608201905061511c60008301866132b7565b6151296020830185613a06565b818103604083015261513b81846150ce565b9050949350505050565b7f706f73744f702072657665727400000000000000000000000000000000000000600082015250565b600061517b600d83613d99565b915061518682615145565b602082019050919050565b60006060820190506151a660008301856132b7565b6151b36020830184613a06565b81810360408301526151c48161516e565b90509392505050565b7f70726566756e642062656c6f772061637475616c476173436f73740000000000600082015250565b6000615203601b83613d99565b915061520e826151cd565b602082019050919050565b600060608201905061522e60008301856132b7565b61523b6020830184613a06565b818103604083015261524c816151f6565b90509392505050565b600060808201905061526a60008301876132b7565b61527760208301866132b7565b61528460408301856132b7565b6152916060830184613b4c565b95945050505050565b7f6761732076616c756573206f766572666c6f7700000000000000000000000000600082015250565b60006152d0601383613d99565b91506152db8261529a565b602082019050919050565b600060208201905081810360008301526152ff816152c3565b9050919050565b7f55736564206d6f7265207468616e20766572696669636174696f6e4761734c6960008201527f6d69740000000000000000000000000000000000000000000000000000000000602082015250565b6000615362602383613d99565b915061536d82615306565b604082019050919050565b600060608201905061538d60008301856132b7565b61539a6020830184613a06565b81810360408301526153ab81615355565b90509392505050565b610100820160008201516153cb60008501826144f8565b5060208201516153de6020850182613a89565b5060408201516153f16040850182613a89565b5060608201516154046060850182613a89565b5060808201516154176080850182613a89565b5060a082015161542a60a08501826144f8565b5060c082015161543d60c0850182613a89565b5060e082015161545060e0850182613a89565b50505050565b61545f81613279565b82525050565b6101808201600082015161547c60008501826153b4565b506020820151615490610100850182615456565b5060408201516154a4610120850182613a89565b5060608201516154b8610140850182613a89565b5060808201516154cc610160850182613a89565b50505050565b60006101c08201905081810360008301526154ee8186886147f0565b90506154fd6020830185615465565b8181036101a08301526155108184613c94565b905095945050505050565b60008151905061552a81613435565b92915050565b60006020828403121561554657615545613198565b5b60006155548482850161551b565b91505092915050565b7f696e76616c69642062656e656669636961727900000000000000000000000000600082015250565b6000615593601383613d99565b915061559e8261555d565b602082019050919050565b600060208201905081810360008301526155c281615586565b9050919050565b600080fd5b600080fd5b600080858511156155e7576155e66155c9565b5b838611156155f8576155f76155ce565b5b6001850283019150848603905094509492505050565b600082905092915050565b60007fffffffffffffffffffffffffffffffffffffffff00000000000000000000000082169050919050565b600082821b905092915050565b600061565e838361560e565b826156698135615619565b925060148210156156a9576156a47fffffffffffffffffffffffffffffffffffffffff00000000000000000000000083601403600802615645565b831692505b505092915050565b7f696e6974436f6465206661696c65640000000000000000000000000000000000600082015250565b60006156e7600f83613d99565b91506156f2826156b1565b602082019050919050565b60006020820190508181036000830152615716816156da565b9050919050565b7f696e76616c6964207061796d6173746572416e64446174610000000000000000600082015250565b6000615753601883613d99565b915061575e8261571d565b602082019050919050565b6000602082019050818103600083015261578281615746565b9050919050565b60008151905061579881613409565b92915050565b6000602082840312156157b4576157b3613198565b5b60006157c284828501615789565b91505092915050565b600060808201905081810360008301526157e58187614bfc565b90506157f46020830186613283565b6158016040830185613a06565b61580e60608301846132b7565b95945050505050565b6000615824600083613d99565b915061582f8261427d565b600082019050919050565b600060608201905061584f60008301856132b7565b61585c6020830184613a06565b818103604083015261586d81615817565b90509392505050565b7f77616c6c6574206469646e2774207061792070726566756e6400000000000000600082015250565b60006158ac601983613d99565b91506158b782615876565b602082019050919050565b60006060820190506158d760008301856132b7565b6158e46020830184613a06565b81810360408301526158f58161589f565b90509392505050565b600060608201905061591360008301856132b7565b6159206020830184613a06565b818103604083015261593181614913565b90509392505050565b7f7061796d6173746572206465706f73697420746f6f206c6f7700000000000000600082015250565b6000615970601983613d99565b915061597b8261593a565b602082019050919050565b600060608201905061599b60008301856132b7565b6159a86020830184613a06565b81810360408301526159b981615963565b90509392505050565b600060608201905081810360008301526159dc8186614bfc565b90506159eb6020830185613283565b6159f860408301846132b7565b949350505050565b600060208284031215615a1657615a15613198565b5b600082015167ffffffffffffffff811115615a3457615a3361319d565b5b615a4084828501614e08565b91505092915050565b7f73656e64657220616c726561647920636f6e7374727563746564000000000000600082015250565b6000615a7f601a83613d99565b9150615a8a82615a49565b602082019050919050565b60006020820190508181036000830152615aae81615a72565b9050919050565b7f73656e64657220646f65736e2774206d6174636820696e6974436f646520616460008201527f6472657373000000000000000000000000000000000000000000000000000000602082015250565b6000615b11602583613d99565b9150615b1c82615ab5565b604082019050919050565b60006020820190508181036000830152615b4081615b04565b9050919050565b7f696e6974436f6465206661696c656420746f206372656174652073656e646572600082015250565b6000615b7d602083613d99565b9150615b8882615b47565b602082019050919050565b60006020820190508181036000830152615bac81615b70565b905091905056fea264697066735822122069280d8dc1e5c443563bc093c4193461a3be34fb9e0f8e856f0de30e89e01b8664736f6c634300080c0033",
  "linkReferences": {},
  "deployedLinkReferences": {}
}