{
  "_format": "hh-sol-artifact-1",
  "contractName": "SimpleWallet",
  "sourceName": "contracts/SimpleWallet.sol",
  "abi": [
    {
      "inputs": [
        {
          "internalType": "contract IEntryPoint",
          "name": "anEntryPoint",
          "type": "address"
        },
        {
          "internalType": "address",
          "name": "anOwner",
          "type": "address"
        }
      ],
      "stateMutability": "nonpayable",
      "type": "constructor"
    },
    {
      "anonymous": false,
      "inputs": [
        {
          "indexed": true,
          "internalType": "address",
          "name": "oldEntryPoint",
          "type": "address"
        },
        {
          "indexed": true,
          "internalType": "address",
          "name": "newEntryPoint",
          "type": "address"
        }
      ],
      "name": "EntryPointChanged",
      "type": "event"
    },
    {
      "inputs": [],
      "name": "addDeposit",
      "outputs": [],
      "stateMutability": "payable",
      "type": "function"
    },
    {
      "inputs": [],
      "name": "entryPoint",
      "outputs": [
        {
          "internalType": "contract IEntryPoint",
          "name": "",
          "type": "address"
        }
      ],
      "stateMutability": "view",
      "type": "function"
    },
    {
      "inputs": [
        {
          "internalType": "address",
          "name": "dest",
          "type": "address"
        },
        {
          "internalType": "uint256",
          "name": "value",
          "type": "uint256"
        },
        {
          "internalType": "bytes",
          "name": "func",
          "type": "bytes"
        }
      ],
      "name": "exec",
      "outputs": [],
      "stateMutability": "nonpayable",
      "type": "function"
    },
    {
      "inputs": [
        {
          "internalType": "address[]",
          "name": "dest",
          "type": "address[]"
        },
        {
          "internalType": "uint256[]",
          "name": "values",
          "type": "uint256[]"
        },
        {
          "internalType": "bytes[]",
          "name": "func",
          "type": "bytes[]"
        }
      ],
      "name": "execBatch",
      "outputs": [],
      "stateMutability": "nonpayable",
      "type": "function"
    },
    {
      "inputs": [
        {
          "internalType": "address",
          "name": "dest",
          "type": "address"
        },
        {
          "internalType": "uint256",
          "name": "value",
          "type": "uint256"
        },
        {
          "internalType": "bytes",
          "name": "func",
          "type": "bytes"
        }
      ],
      "name": "execFromEntryPoint",
      "outputs": [],
      "stateMutability": "nonpayable",
      "type": "function"
    },
    {
      "inputs": [],
      "name": "getChainID",
      "outputs": [
        {
          "internalType": "uint256",
          "name": "",
          "type": "uint256"
        }
      ],
      "stateMutability": "view",
      "type": "function"
    },
    {
      "inputs": [],
      "name": "getDeposit",
      "outputs": [
        {
          "internalType": "uint256",
          "name": "",
          "type": "uint256"
        }
      ],
      "stateMutability": "view",
      "type": "function"
    },
    {
      "inputs": [],
      "name": "nonce",
      "outputs": [
        {
          "internalType": "uint256",
          "name": "",
          "type": "uint256"
        }
      ],
      "stateMutability": "view",
      "type": "function"
    },
    {
      "inputs": [],
      "name": "owner",
      "outputs": [
        {
          "internalType": "address",
          "name": "",
          "type": "address"
        }
      ],
      "stateMutability": "view",
      "type": "function"
    },
    {
      "inputs": [
        {
          "internalType": "address payable",
          "name": "dest",
          "type": "address"
        },
        {
          "internalType": "uint256",
          "name": "amount",
          "type": "uint256"
        }
      ],
      "name": "transfer",
      "outputs": [],
      "stateMutability": "nonpayable",
      "type": "function"
    },
    {
      "inputs": [
        {
          "internalType": "address",
          "name": "newEntryPoint",
          "type": "address"
        }
      ],
      "name": "updateEntryPoint",
      "outputs": [],
      "stateMutability": "nonpayable",
      "type": "function"
    },
    {
      "inputs": [
        {
          "components": [
            {
              "internalType": "address",
              "name": "sender",
              "type": "address"
            },
            {
              "internalType": "uint256",
              "name": "nonce",
              "type": "uint256"
            },
            {
              "internalType": "bytes",
              "name": "initCode",
              "type": "bytes"
            },
            {
              "internalType": "bytes",
              "name": "callData",
              "type": "bytes"
            },
            {
              "internalType": "uint256",
              "name": "callGasLimit",
              "type": "uint256"
            },
            {
              "internalType": "uint256",
              "name": "verificationGasLimit",
              "type": "uint256"
            },
            {
              "internalType": "uint256",
              "name": "preVerificationGas",
              "type": "uint256"
            },
            {
              "internalType": "uint256",
              "name": "maxFeePerGas",
              "type": "uint256"
            },
            {
              "internalType": "uint256",
              "name": "maxPriorityFeePerGas",
              "type": "uint256"
            },
            {
              "internalType": "bytes",
              "name": "paymasterAndData",
              "type": "bytes"
            },
            {
              "internalType": "bytes",
              "name": "signature",
              "type": "bytes"
            }
          ],
          "internalType": "struct UserOperation",
          "name": "userOp",
          "type": "tuple"
        },
        {
          "internalType": "bytes32",
          "name": "requestId",
          "type": "bytes32"
        },
        {
          "internalType": "address",
          "name": "aggregator",
          "type": "address"
        },
        {
          "internalType": "uint256",
          "name": "missingWalletFunds",
          "type": "uint256"
        }
      ],
      "name": "validateUserOp",
      "outputs": [],
      "stateMutability": "nonpayable",
      "type": "function"
    },
    {
      "inputs": [
        {
          "internalType": "address payable",
          "name": "withdrawAddress",
          "type": "address"
        },
        {
          "internalType": "uint256",
          "name": "amount",
          "type": "uint256"
        }
      ],
      "name": "withdrawDepositTo",
      "outputs": [],
      "stateMutability": "nonpayable",
      "type": "function"
    },
    {
      "stateMutability": "payable",
      "type": "receive"
    }
  ],
  "bytecode": "0x60806040523480156200001157600080fd5b506040516200250c3803806200250c833981810160405281019062000037919062000170565b81600160006101000a81548173ffffffffffffffffffffffffffffffffffffffff021916908373ffffffffffffffffffffffffffffffffffffffff160217905550806000600c6101000a81548173ffffffffffffffffffffffffffffffffffffffff021916908373ffffffffffffffffffffffffffffffffffffffff1602179055505050620001b7565b600080fd5b600073ffffffffffffffffffffffffffffffffffffffff82169050919050565b6000620000f382620000c6565b9050919050565b60006200010782620000e6565b9050919050565b6200011981620000fa565b81146200012557600080fd5b50565b60008151905062000139816200010e565b92915050565b6200014a81620000e6565b81146200015657600080fd5b50565b6000815190506200016a816200013f565b92915050565b600080604083850312156200018a5762000189620000c1565b5b60006200019a8582860162000128565b9250506020620001ad8582860162000159565b9150509250929050565b61234580620001c76000396000f3fe6080604052600436106100c65760003560e01c806380c5c7d01161007f578063a9059cbb11610059578063a9059cbb14610228578063affed0e014610251578063b0d691fe1461027c578063c399ec88146102a7576100cd565b806380c5c7d0146101ab5780638da5cb5b146101d4578063a4d89251146101ff576100cd565b80630565bb67146100d25780630825d1fc146100fb5780631b71bb6e146101245780634a58db191461014d5780634d44560d14610157578063564b81ef14610180576100cd565b366100cd57005b600080fd5b3480156100de57600080fd5b506100f960048036038101906100f491906115b4565b6102d2565b005b34801561010757600080fd5b50610122600480360381019061011d9190611683565b61032f565b005b34801561013057600080fd5b5061014b60048036038101906101469190611706565b6103f1565b005b610155610405565b005b34801561016357600080fd5b5061017e60048036038101906101799190611771565b610485565b005b34801561018c57600080fd5b50610195610505565b6040516101a291906117c0565b60405180910390f35b3480156101b757600080fd5b506101d260048036038101906101cd91906115b4565b610512565b005b3480156101e057600080fd5b506101e961056f565b6040516101f691906117ea565b60405180910390f35b34801561020b57600080fd5b5061022660048036038101906102219190611907565b610595565b005b34801561023457600080fd5b5061024f600480360381019061024a9190611771565b610727565b005b34801561025d57600080fd5b5061026661077a565b60405161027391906117c0565b60405180910390f35b34801561028857600080fd5b506102916107a9565b60405161029e9190611a1a565b60405180910390f35b3480156102b357600080fd5b506102bc6107d3565b6040516102c991906117c0565b60405180910390f35b6102da61085b565b610329848484848080601f016020809104026020016040519081016040528093929190818152602001838380828437600081840152601f19601f82011690508083019250505050505050610923565b50505050565b6103376109b0565b610342848484610a27565b60008480604001906103549190611a44565b905014156103665761036584610be4565b5b6103a46040518060400160405280600c81526020017f7961686120746b20616567610000000000000000000000000000000000000000815250610c91565b6103ad81610d2a565b6103eb6040518060400160405280600f81526020017f796168612070686174206a616567610000000000000000000000000000000000815250610c91565b50505050565b6103f9610dcf565b61040281610dd9565b50565b600061040f6107a9565b73ffffffffffffffffffffffffffffffffffffffff163460405161043290611ad8565b60006040518083038185875af1925050503d806000811461046f576040519150601f19603f3d011682016040523d82523d6000602084013e610474565b606091505b505090508061048257600080fd5b50565b61048d61085b565b6104956107a9565b73ffffffffffffffffffffffffffffffffffffffff1663205c287883836040518363ffffffff1660e01b81526004016104cf929190611afc565b600060405180830381600087803b1580156104e957600080fd5b505af11580156104fd573d6000803e3d6000fd5b505050505050565b6000804690508091505090565b61051a6109b0565b610569848484848080601f016020809104026020016040519081016040528093929190818152602001838380828437600081840152601f19601f82011690508083019250505050505050610923565b50505050565b6000600c9054906101000a900473ffffffffffffffffffffffffffffffffffffffff1681565b6105d36040518060400160405280600b81526020017f796168612061796120683f000000000000000000000000000000000000000000815250610c91565b81819050868690501461061b576040517f08c379a000000000000000000000000000000000000000000000000000000000815260040161061290611b82565b60405180910390fd5b60005b8686905081101561071e5761065987878381811061063f5761063e611ba2565b5b90506020020160208101906106549190611706565b610e99565b61070b87878381811061066f5761066e611ba2565b5b90506020020160208101906106849190611706565b86868481811061069757610696611ba2565b5b905060200201358585858181106106b1576106b0611ba2565b5b90506020028101906106c39190611a44565b8080601f016020809104026020016040519081016040528093929190818152602001838380828437600081840152601f19601f82011690508083019250505050505050610923565b808061071690611c00565b91505061061e565b50505050505050565b61072f61085b565b8173ffffffffffffffffffffffffffffffffffffffff166108fc829081150290604051600060405180830381858888f19350505050158015610775573d6000803e3d6000fd5b505050565b60008060009054906101000a90046bffffffffffffffffffffffff166bffffffffffffffffffffffff16905090565b6000600160009054906101000a900473ffffffffffffffffffffffffffffffffffffffff16905090565b60006107dd6107a9565b73ffffffffffffffffffffffffffffffffffffffff166370a08231306040518263ffffffff1660e01b815260040161081591906117ea565b602060405180830381865afa158015610832573d6000803e3d6000fd5b505050506040513d601f19601f820116820180604052508101906108569190611c5e565b905090565b6000600c9054906101000a900473ffffffffffffffffffffffffffffffffffffffff1673ffffffffffffffffffffffffffffffffffffffff163373ffffffffffffffffffffffffffffffffffffffff1614806108e257503073ffffffffffffffffffffffffffffffffffffffff163373ffffffffffffffffffffffffffffffffffffffff16145b610921576040517f08c379a000000000000000000000000000000000000000000000000000000000815260040161091890611cd7565b60405180910390fd5b565b6000808473ffffffffffffffffffffffffffffffffffffffff16848460405161094c9190611d66565b60006040518083038185875af1925050503d8060008114610989576040519150601f19603f3d011682016040523d82523d6000602084013e61098e565b606091505b509150915061099c82610f32565b816109a957805160208201fd5b5050505050565b6109b86107a9565b73ffffffffffffffffffffffffffffffffffffffff163373ffffffffffffffffffffffffffffffffffffffff1614610a25576040517f08c379a0000000000000000000000000000000000000000000000000000000008152600401610a1c90611dc9565b60405180910390fd5b565b6000610a3283610fcb565b9050610a3d81610ffb565b610aab610aa685806101400190610a549190611a44565b8080601f016020809104026020016040519081016040528093929190818152602001838380828437600081840152601f19601f820116905080830192505050505050508361109490919063ffffffff16565b610e99565b610b1184806101400190610abf9190611a44565b8080601f016020809104026020016040519081016040528093929190818152602001838380828437600081840152601f19601f820116905080830192505050505050508261109490919063ffffffff16565b73ffffffffffffffffffffffffffffffffffffffff166000600c9054906101000a900473ffffffffffffffffffffffffffffffffffffffff1673ffffffffffffffffffffffffffffffffffffffff1614610ba0576040517f08c379a0000000000000000000000000000000000000000000000000000000008152600401610b9790611e35565b60405180910390fd5b610bde6040518060400160405280600e81526020017f7361686920746f20686220736162000000000000000000000000000000000000815250610c91565b50505050565b806020013560008081819054906101000a90046bffffffffffffffffffffffff1680929190610c1290611e6d565b91906101000a8154816bffffffffffffffffffffffff02191690836bffffffffffffffffffffffff1602179055506bffffffffffffffffffffffff1614610c8e576040517f08c379a0000000000000000000000000000000000000000000000000000000008152600401610c8590611eee565b60405180910390fd5b50565b610d2781604051602401610ca59190611f63565b6040516020818303038152906040527f41304fac000000000000000000000000000000000000000000000000000000007bffffffffffffffffffffffffffffffffffffffffffffffffffffffff19166020820180517bffffffffffffffffffffffffffffffffffffffffffffffffffffffff83818316178352505050506110bb565b50565b610d33816110e4565b60008114610dcc5760003373ffffffffffffffffffffffffffffffffffffffff16827fffffffffffffffffffffffffffffffffffffffffffffffffffffffffffffffff90604051610d8390611ad8565b600060405180830381858888f193505050503d8060008114610dc1576040519150601f19603f3d011682016040523d82523d6000602084013e610dc6565b606091505b50509050505b50565b610dd761085b565b565b8073ffffffffffffffffffffffffffffffffffffffff16600160009054906101000a900473ffffffffffffffffffffffffffffffffffffffff1673ffffffffffffffffffffffffffffffffffffffff167f450909c1478d09248269d4ad4fa8cba61ca3f50faed58c7aedefa51c7f62b83a60405160405180910390a380600160006101000a81548173ffffffffffffffffffffffffffffffffffffffff021916908373ffffffffffffffffffffffffffffffffffffffff16021790555050565b610f2f81604051602401610ead91906117ea565b6040516020818303038152906040527f2c2ecbc2000000000000000000000000000000000000000000000000000000007bffffffffffffffffffffffffffffffffffffffffffffffffffffffff19166020820180517bffffffffffffffffffffffffffffffffffffffffffffffffffffffff83818316178352505050506110bb565b50565b610fc881604051602401610f469190611fa0565b6040516020818303038152906040527f32458eed000000000000000000000000000000000000000000000000000000007bffffffffffffffffffffffffffffffffffffffffffffffffffffffff19166020820180517bffffffffffffffffffffffffffffffffffffffffffffffffffffffff83818316178352505050506110bb565b50565b600081604051602001610fde9190612033565b604051602081830303815290604052805190602001209050919050565b6110918160405160240161100f9190612068565b6040516020818303038152906040527f27b7cf85000000000000000000000000000000000000000000000000000000007bffffffffffffffffffffffffffffffffffffffffffffffffffffffff19166020820180517bffffffffffffffffffffffffffffffffffffffffffffffffffffffff83818316178352505050506110bb565b50565b60008060006110a3858561117d565b915091506110b0816111cf565b819250505092915050565b60008151905060006a636f6e736f6c652e6c6f679050602083016000808483855afa5050505050565b61117a816040516024016110f891906117c0565b6040516020818303038152906040527ff82c50f1000000000000000000000000000000000000000000000000000000007bffffffffffffffffffffffffffffffffffffffffffffffffffffffff19166020820180517bffffffffffffffffffffffffffffffffffffffffffffffffffffffff83818316178352505050506110bb565b50565b6000806041835114156111bf5760008060006020860151925060408601519150606086015160001a90506111b3878285856113a4565b945094505050506111c8565b60006002915091505b9250929050565b600060048111156111e3576111e2612083565b5b8160048111156111f6576111f5612083565b5b1415611201576113a1565b6001600481111561121557611214612083565b5b81600481111561122857611227612083565b5b1415611269576040517f08c379a0000000000000000000000000000000000000000000000000000000008152600401611260906120fe565b60405180910390fd5b6002600481111561127d5761127c612083565b5b8160048111156112905761128f612083565b5b14156112d1576040517f08c379a00000000000000000000000000000000000000000000000000000000081526004016112c89061216a565b60405180910390fd5b600360048111156112e5576112e4612083565b5b8160048111156112f8576112f7612083565b5b1415611339576040517f08c379a0000000000000000000000000000000000000000000000000000000008152600401611330906121fc565b60405180910390fd5b60048081111561134c5761134b612083565b5b81600481111561135f5761135e612083565b5b14156113a0576040517f08c379a00000000000000000000000000000000000000000000000000000000081526004016113979061228e565b60405180910390fd5b5b50565b6000807f7fffffffffffffffffffffffffffffff5d576e7357a4501ddfe92f46681b20a08360001c11156113df5760006003915091506114a8565b601b8560ff16141580156113f75750601c8560ff1614155b156114095760006004915091506114a8565b60006001878787876040516000815260200160405260405161142e94939291906122ca565b6020604051602081039080840390855afa158015611450573d6000803e3d6000fd5b505050602060405103519050600073ffffffffffffffffffffffffffffffffffffffff168173ffffffffffffffffffffffffffffffffffffffff16141561149f576000600192509250506114a8565b80600092509250505b94509492505050565b600080fd5b600080fd5b600073ffffffffffffffffffffffffffffffffffffffff82169050919050565b60006114e6826114bb565b9050919050565b6114f6816114db565b811461150157600080fd5b50565b600081359050611513816114ed565b92915050565b6000819050919050565b61152c81611519565b811461153757600080fd5b50565b60008135905061154981611523565b92915050565b600080fd5b600080fd5b600080fd5b60008083601f8401126115745761157361154f565b5b8235905067ffffffffffffffff81111561159157611590611554565b5b6020830191508360018202830111156115ad576115ac611559565b5b9250929050565b600080600080606085870312156115ce576115cd6114b1565b5b60006115dc87828801611504565b94505060206115ed8782880161153a565b935050604085013567ffffffffffffffff81111561160e5761160d6114b6565b5b61161a8782880161155e565b925092505092959194509250565b600080fd5b6000610160828403121561164457611643611628565b5b81905092915050565b6000819050919050565b6116608161164d565b811461166b57600080fd5b50565b60008135905061167d81611657565b92915050565b6000806000806080858703121561169d5761169c6114b1565b5b600085013567ffffffffffffffff8111156116bb576116ba6114b6565b5b6116c78782880161162d565b94505060206116d88782880161166e565b93505060406116e987828801611504565b92505060606116fa8782880161153a565b91505092959194509250565b60006020828403121561171c5761171b6114b1565b5b600061172a84828501611504565b91505092915050565b600061173e826114bb565b9050919050565b61174e81611733565b811461175957600080fd5b50565b60008135905061176b81611745565b92915050565b60008060408385031215611788576117876114b1565b5b60006117968582860161175c565b92505060206117a78582860161153a565b9150509250929050565b6117ba81611519565b82525050565b60006020820190506117d560008301846117b1565b92915050565b6117e4816114db565b82525050565b60006020820190506117ff60008301846117db565b92915050565b60008083601f84011261181b5761181a61154f565b5b8235905067ffffffffffffffff81111561183857611837611554565b5b60208301915083602082028301111561185457611853611559565b5b9250929050565b60008083601f8401126118715761187061154f565b5b8235905067ffffffffffffffff81111561188e5761188d611554565b5b6020830191508360208202830111156118aa576118a9611559565b5b9250929050565b60008083601f8401126118c7576118c661154f565b5b8235905067ffffffffffffffff8111156118e4576118e3611554565b5b602083019150836020820283011115611900576118ff611559565b5b9250929050565b60008060008060008060608789031215611924576119236114b1565b5b600087013567ffffffffffffffff811115611942576119416114b6565b5b61194e89828a01611805565b9650965050602087013567ffffffffffffffff811115611971576119706114b6565b5b61197d89828a0161185b565b9450945050604087013567ffffffffffffffff8111156119a05761199f6114b6565b5b6119ac89828a016118b1565b92509250509295509295509295565b6000819050919050565b60006119e06119db6119d6846114bb565b6119bb565b6114bb565b9050919050565b60006119f2826119c5565b9050919050565b6000611a04826119e7565b9050919050565b611a14816119f9565b82525050565b6000602082019050611a2f6000830184611a0b565b92915050565b600080fd5b600080fd5b600080fd5b60008083356001602003843603038112611a6157611a60611a35565b5b80840192508235915067ffffffffffffffff821115611a8357611a82611a3a565b5b602083019250600182023603831315611a9f57611a9e611a3f565b5b509250929050565b600081905092915050565b50565b6000611ac2600083611aa7565b9150611acd82611ab2565b600082019050919050565b6000611ae382611ab5565b9150819050919050565b611af681611733565b82525050565b6000604082019050611b116000830185611aed565b611b1e60208301846117b1565b9392505050565b600082825260208201905092915050565b7f77726f6e67206172726179206c656e6774687300000000000000000000000000600082015250565b6000611b6c601383611b25565b9150611b7782611b36565b602082019050919050565b60006020820190508181036000830152611b9b81611b5f565b9050919050565b7f4e487b7100000000000000000000000000000000000000000000000000000000600052603260045260246000fd5b7f4e487b7100000000000000000000000000000000000000000000000000000000600052601160045260246000fd5b6000611c0b82611519565b91507fffffffffffffffffffffffffffffffffffffffffffffffffffffffffffffffff821415611c3e57611c3d611bd1565b5b600182019050919050565b600081519050611c5881611523565b92915050565b600060208284031215611c7457611c736114b1565b5b6000611c8284828501611c49565b91505092915050565b7f6f6e6c79206f776e657200000000000000000000000000000000000000000000600082015250565b6000611cc1600a83611b25565b9150611ccc82611c8b565b602082019050919050565b60006020820190508181036000830152611cf081611cb4565b9050919050565b600081519050919050565b60005b83811015611d20578082015181840152602081019050611d05565b83811115611d2f576000848401525b50505050565b6000611d4082611cf7565b611d4a8185611aa7565b9350611d5a818560208601611d02565b80840191505092915050565b6000611d728284611d35565b915081905092915050565b7f77616c6c65743a206e6f742066726f6d20456e747279506f696e740000000000600082015250565b6000611db3601b83611b25565b9150611dbe82611d7d565b602082019050919050565b60006020820190508181036000830152611de281611da6565b9050919050565b7f77616c6c65743a2077726f6e67207369676e6174757265000000000000000000600082015250565b6000611e1f601783611b25565b9150611e2a82611de9565b602082019050919050565b60006020820190508181036000830152611e4e81611e12565b9050919050565b60006bffffffffffffffffffffffff82169050919050565b6000611e7882611e55565b91506bffffffffffffffffffffffff821415611e9757611e96611bd1565b5b600182019050919050565b7f77616c6c65743a20696e76616c6964206e6f6e63650000000000000000000000600082015250565b6000611ed8601583611b25565b9150611ee382611ea2565b602082019050919050565b60006020820190508181036000830152611f0781611ecb565b9050919050565b600081519050919050565b6000601f19601f8301169050919050565b6000611f3582611f0e565b611f3f8185611b25565b9350611f4f818560208601611d02565b611f5881611f19565b840191505092915050565b60006020820190508181036000830152611f7d8184611f2a565b905092915050565b60008115159050919050565b611f9a81611f85565b82525050565b6000602082019050611fb56000830184611f91565b92915050565b600081905092915050565b7f19457468657265756d205369676e6564204d6573736167653a0a333200000000600082015250565b6000611ffc601c83611fbb565b915061200782611fc6565b601c82019050919050565b6000819050919050565b61202d6120288261164d565b612012565b82525050565b600061203e82611fef565b915061204a828461201c565b60208201915081905092915050565b6120628161164d565b82525050565b600060208201905061207d6000830184612059565b92915050565b7f4e487b7100000000000000000000000000000000000000000000000000000000600052602160045260246000fd5b7f45434453413a20696e76616c6964207369676e61747572650000000000000000600082015250565b60006120e8601883611b25565b91506120f3826120b2565b602082019050919050565b60006020820190508181036000830152612117816120db565b9050919050565b7f45434453413a20696e76616c6964207369676e6174757265206c656e67746800600082015250565b6000612154601f83611b25565b915061215f8261211e565b602082019050919050565b6000602082019050818103600083015261218381612147565b9050919050565b7f45434453413a20696e76616c6964207369676e6174757265202773272076616c60008201527f7565000000000000000000000000000000000000000000000000000000000000602082015250565b60006121e6602283611b25565b91506121f18261218a565b604082019050919050565b60006020820190508181036000830152612215816121d9565b9050919050565b7f45434453413a20696e76616c6964207369676e6174757265202776272076616c60008201527f7565000000000000000000000000000000000000000000000000000000000000602082015250565b6000612278602283611b25565b91506122838261221c565b604082019050919050565b600060208201905081810360008301526122a78161226b565b9050919050565b600060ff82169050919050565b6122c4816122ae565b82525050565b60006080820190506122df6000830187612059565b6122ec60208301866122bb565b6122f96040830185612059565b6123066060830184612059565b9594505050505056fea26469706673582212209eb2034e2f0fa52da299c09b1f0299a8b39fff4f490f8e7f064f289bf95dd6b664736f6c634300080c0033",
  "linkReferences": {},
  "deployedLinkReferences": {}
}