{
  "_format": "hh-sol-artifact-1",
  "contractName": "SimpleWallet",
  "sourceName": "contracts/SimpleWallet.sol",
  "abi": [
    {
      "inputs": [
        {
          "internalType": "contract IEntryPoint",
          "name": "anEntryPoint",
          "type": "address"
        },
        {
          "internalType": "address",
          "name": "anOwner",
          "type": "address"
        }
      ],
      "stateMutability": "nonpayable",
      "type": "constructor"
    },
    {
      "anonymous": false,
      "inputs": [
        {
          "indexed": true,
          "internalType": "address",
          "name": "oldEntryPoint",
          "type": "address"
        },
        {
          "indexed": true,
          "internalType": "address",
          "name": "newEntryPoint",
          "type": "address"
        }
      ],
      "name": "EntryPointChanged",
      "type": "event"
    },
    {
      "inputs": [],
      "name": "addDeposit",
      "outputs": [],
      "stateMutability": "payable",
      "type": "function"
    },
    {
      "inputs": [],
      "name": "entryPoint",
      "outputs": [
        {
          "internalType": "contract IEntryPoint",
          "name": "",
          "type": "address"
        }
      ],
      "stateMutability": "view",
      "type": "function"
    },
    {
      "inputs": [
        {
          "internalType": "address",
          "name": "dest",
          "type": "address"
        },
        {
          "internalType": "uint256",
          "name": "value",
          "type": "uint256"
        },
        {
          "internalType": "bytes",
          "name": "func",
          "type": "bytes"
        }
      ],
      "name": "exec",
      "outputs": [],
      "stateMutability": "nonpayable",
      "type": "function"
    },
    {
      "inputs": [
        {
          "internalType": "address[]",
          "name": "dest",
          "type": "address[]"
        },
        {
          "internalType": "bytes[]",
          "name": "func",
          "type": "bytes[]"
        }
      ],
      "name": "execBatch",
      "outputs": [],
      "stateMutability": "nonpayable",
      "type": "function"
    },
    {
      "inputs": [
        {
          "internalType": "address",
          "name": "dest",
          "type": "address"
        },
        {
          "internalType": "uint256",
          "name": "value",
          "type": "uint256"
        },
        {
          "internalType": "bytes",
          "name": "func",
          "type": "bytes"
        }
      ],
      "name": "execFromEntryPoint",
      "outputs": [],
      "stateMutability": "nonpayable",
      "type": "function"
    },
    {
      "inputs": [],
      "name": "getDeposit",
      "outputs": [
        {
          "internalType": "uint256",
          "name": "",
          "type": "uint256"
        }
      ],
      "stateMutability": "view",
      "type": "function"
    },
    {
      "inputs": [],
      "name": "nonce",
      "outputs": [
        {
          "internalType": "uint256",
          "name": "",
          "type": "uint256"
        }
      ],
      "stateMutability": "view",
      "type": "function"
    },
    {
      "inputs": [],
      "name": "owner",
      "outputs": [
        {
          "internalType": "address",
          "name": "",
          "type": "address"
        }
      ],
      "stateMutability": "view",
      "type": "function"
    },
    {
      "inputs": [
        {
          "internalType": "address payable",
          "name": "dest",
          "type": "address"
        },
        {
          "internalType": "uint256",
          "name": "amount",
          "type": "uint256"
        }
      ],
      "name": "transfer",
      "outputs": [],
      "stateMutability": "nonpayable",
      "type": "function"
    },
    {
      "inputs": [
        {
          "internalType": "address",
          "name": "newEntryPoint",
          "type": "address"
        }
      ],
      "name": "updateEntryPoint",
      "outputs": [],
      "stateMutability": "nonpayable",
      "type": "function"
    },
    {
      "inputs": [
        {
          "components": [
            {
              "internalType": "address",
              "name": "sender",
              "type": "address"
            },
            {
              "internalType": "uint256",
              "name": "nonce",
              "type": "uint256"
            },
            {
              "internalType": "bytes",
              "name": "initCode",
              "type": "bytes"
            },
            {
              "internalType": "bytes",
              "name": "callData",
              "type": "bytes"
            },
            {
              "internalType": "uint256",
              "name": "callGasLimit",
              "type": "uint256"
            },
            {
              "internalType": "uint256",
              "name": "verificationGasLimit",
              "type": "uint256"
            },
            {
              "internalType": "uint256",
              "name": "preVerificationGas",
              "type": "uint256"
            },
            {
              "internalType": "uint256",
              "name": "maxFeePerGas",
              "type": "uint256"
            },
            {
              "internalType": "uint256",
              "name": "maxPriorityFeePerGas",
              "type": "uint256"
            },
            {
              "internalType": "bytes",
              "name": "paymasterAndData",
              "type": "bytes"
            },
            {
              "internalType": "bytes",
              "name": "signature",
              "type": "bytes"
            }
          ],
          "internalType": "struct UserOperation",
          "name": "userOp",
          "type": "tuple"
        },
        {
          "internalType": "bytes32",
          "name": "requestId",
          "type": "bytes32"
        },
        {
          "internalType": "address",
          "name": "aggregator",
          "type": "address"
        },
        {
          "internalType": "uint256",
          "name": "missingWalletFunds",
          "type": "uint256"
        }
      ],
      "name": "validateUserOp",
      "outputs": [],
      "stateMutability": "nonpayable",
      "type": "function"
    },
    {
      "inputs": [
        {
          "internalType": "address payable",
          "name": "withdrawAddress",
          "type": "address"
        },
        {
          "internalType": "uint256",
          "name": "amount",
          "type": "uint256"
        }
      ],
      "name": "withdrawDepositTo",
      "outputs": [],
      "stateMutability": "nonpayable",
      "type": "function"
    },
    {
      "stateMutability": "payable",
      "type": "receive"
    }
  ],
  "bytecode": "0x60806040523480156200001157600080fd5b5060405162001e7f38038062001e7f833981810160405281019062000037919062000170565b81600160006101000a81548173ffffffffffffffffffffffffffffffffffffffff021916908373ffffffffffffffffffffffffffffffffffffffff160217905550806000600c6101000a81548173ffffffffffffffffffffffffffffffffffffffff021916908373ffffffffffffffffffffffffffffffffffffffff1602179055505050620001b7565b600080fd5b600073ffffffffffffffffffffffffffffffffffffffff82169050919050565b6000620000f382620000c6565b9050919050565b60006200010782620000e6565b9050919050565b6200011981620000fa565b81146200012557600080fd5b50565b60008151905062000139816200010e565b92915050565b6200014a81620000e6565b81146200015657600080fd5b50565b6000815190506200016a816200013f565b92915050565b600080604083850312156200018a5762000189620000c1565b5b60006200019a8582860162000128565b9250506020620001ad8582860162000159565b9150509250929050565b611cb880620001c76000396000f3fe6080604052600436106100ab5760003560e01c80638da5cb5b116100645780638da5cb5b1461018e578063a9059cbb146101b9578063affed0e0146101e2578063b0d691fe1461020d578063c399ec8814610238578063d0cb75fa14610263576100b2565b80630565bb67146100b75780630825d1fc146100e05780631b71bb6e146101095780634a58db19146101325780634d44560d1461013c57806380c5c7d014610165576100b2565b366100b257005b600080fd5b3480156100c357600080fd5b506100de60048036038101906100d99190611078565b61028c565b005b3480156100ec57600080fd5b5061010760048036038101906101029190611147565b6102e9565b005b34801561011557600080fd5b50610130600480360381019061012b91906111ca565b61032f565b005b61013a610343565b005b34801561014857600080fd5b50610163600480360381019061015e9190611235565b6103c3565b005b34801561017157600080fd5b5061018c60048036038101906101879190611078565b610443565b005b34801561019a57600080fd5b506101a36104a0565b6040516101b09190611284565b60405180910390f35b3480156101c557600080fd5b506101e060048036038101906101db9190611235565b6104c6565b005b3480156101ee57600080fd5b506101f7610519565b60405161020491906112ae565b60405180910390f35b34801561021957600080fd5b50610222610548565b60405161022f9190611328565b60405180910390f35b34801561024457600080fd5b5061024d610572565b60405161025a91906112ae565b60405180910390f35b34801561026f57600080fd5b5061028a600480360381019061028591906113ef565b6105fa565b005b61029461070c565b6102e3848484848080601f016020809104026020016040519081016040528093929190818152602001838380828437600081840152601f19601f820116905080830192505050505050506107d4565b50505050565b6102f1610858565b6102fc8484846108cf565b600084806040019061030e919061147f565b905014156103205761031f846109d7565b5b61032981610a84565b50505050565b610337610b20565b61034081610b2a565b50565b600061034d610548565b73ffffffffffffffffffffffffffffffffffffffff163460405161037090611513565b60006040518083038185875af1925050503d80600081146103ad576040519150601f19603f3d011682016040523d82523d6000602084013e6103b2565b606091505b50509050806103c057600080fd5b50565b6103cb61070c565b6103d3610548565b73ffffffffffffffffffffffffffffffffffffffff1663205c287883836040518363ffffffff1660e01b815260040161040d929190611537565b600060405180830381600087803b15801561042757600080fd5b505af115801561043b573d6000803e3d6000fd5b505050505050565b61044b610858565b61049a848484848080601f016020809104026020016040519081016040528093929190818152602001838380828437600081840152601f19601f820116905080830192505050505050506107d4565b50505050565b6000600c9054906101000a900473ffffffffffffffffffffffffffffffffffffffff1681565b6104ce61070c565b8173ffffffffffffffffffffffffffffffffffffffff166108fc829081150290604051600060405180830381858888f19350505050158015610514573d6000803e3d6000fd5b505050565b60008060009054906101000a90046bffffffffffffffffffffffff166bffffffffffffffffffffffff16905090565b6000600160009054906101000a900473ffffffffffffffffffffffffffffffffffffffff16905090565b600061057c610548565b73ffffffffffffffffffffffffffffffffffffffff166370a08231306040518263ffffffff1660e01b81526004016105b49190611284565b602060405180830381865afa1580156105d1573d6000803e3d6000fd5b505050506040513d601f19601f820116820180604052508101906105f59190611575565b905090565b61060261070c565b81819050848490501461064a576040517f08c379a0000000000000000000000000000000000000000000000000000000008152600401610641906115ff565b60405180910390fd5b60005b84849050811015610705576106f285858381811061066e5761066d61161f565b5b905060200201602081019061068391906111ca565b60008585858181106106985761069761161f565b5b90506020028101906106aa919061147f565b8080601f016020809104026020016040519081016040528093929190818152602001838380828437600081840152601f19601f820116905080830192505050505050506107d4565b80806106fd9061167d565b91505061064d565b5050505050565b6000600c9054906101000a900473ffffffffffffffffffffffffffffffffffffffff1673ffffffffffffffffffffffffffffffffffffffff163373ffffffffffffffffffffffffffffffffffffffff16148061079357503073ffffffffffffffffffffffffffffffffffffffff163373ffffffffffffffffffffffffffffffffffffffff16145b6107d2576040517f08c379a00000000000000000000000000000000000000000000000000000000081526004016107c990611712565b60405180910390fd5b565b6000808473ffffffffffffffffffffffffffffffffffffffff1684846040516107fd91906117a1565b60006040518083038185875af1925050503d806000811461083a576040519150601f19603f3d011682016040523d82523d6000602084013e61083f565b606091505b50915091508161085157805160208201fd5b5050505050565b610860610548565b73ffffffffffffffffffffffffffffffffffffffff163373ffffffffffffffffffffffffffffffffffffffff16146108cd576040517f08c379a00000000000000000000000000000000000000000000000000000000081526004016108c490611804565b60405180910390fd5b565b60006108da83610bea565b9050610942848061014001906108f0919061147f565b8080601f016020809104026020016040519081016040528093929190818152602001838380828437600081840152601f19601f8201169050808301925050505050505082610c1a90919063ffffffff16565b73ffffffffffffffffffffffffffffffffffffffff166000600c9054906101000a900473ffffffffffffffffffffffffffffffffffffffff1673ffffffffffffffffffffffffffffffffffffffff16146109d1576040517f08c379a00000000000000000000000000000000000000000000000000000000081526004016109c890611870565b60405180910390fd5b50505050565b806020013560008081819054906101000a90046bffffffffffffffffffffffff1680929190610a05906118a8565b91906101000a8154816bffffffffffffffffffffffff02191690836bffffffffffffffffffffffff1602179055506bffffffffffffffffffffffff1614610a81576040517f08c379a0000000000000000000000000000000000000000000000000000000008152600401610a7890611929565b60405180910390fd5b50565b60008114610b1d5760003373ffffffffffffffffffffffffffffffffffffffff16827fffffffffffffffffffffffffffffffffffffffffffffffffffffffffffffffff90604051610ad490611513565b600060405180830381858888f193505050503d8060008114610b12576040519150601f19603f3d011682016040523d82523d6000602084013e610b17565b606091505b50509050505b50565b610b2861070c565b565b8073ffffffffffffffffffffffffffffffffffffffff16600160009054906101000a900473ffffffffffffffffffffffffffffffffffffffff1673ffffffffffffffffffffffffffffffffffffffff167f450909c1478d09248269d4ad4fa8cba61ca3f50faed58c7aedefa51c7f62b83a60405160405180910390a380600160006101000a81548173ffffffffffffffffffffffffffffffffffffffff021916908373ffffffffffffffffffffffffffffffffffffffff16021790555050565b600081604051602001610bfd91906119c1565b604051602081830303815290604052805190602001209050919050565b6000806000610c298585610c41565b91509150610c3681610c93565b819250505092915050565b600080604183511415610c835760008060006020860151925060408601519150606086015160001a9050610c7787828585610e68565b94509450505050610c8c565b60006002915091505b9250929050565b60006004811115610ca757610ca66119e7565b5b816004811115610cba57610cb96119e7565b5b1415610cc557610e65565b60016004811115610cd957610cd86119e7565b5b816004811115610cec57610ceb6119e7565b5b1415610d2d576040517f08c379a0000000000000000000000000000000000000000000000000000000008152600401610d2490611a62565b60405180910390fd5b60026004811115610d4157610d406119e7565b5b816004811115610d5457610d536119e7565b5b1415610d95576040517f08c379a0000000000000000000000000000000000000000000000000000000008152600401610d8c90611ace565b60405180910390fd5b60036004811115610da957610da86119e7565b5b816004811115610dbc57610dbb6119e7565b5b1415610dfd576040517f08c379a0000000000000000000000000000000000000000000000000000000008152600401610df490611b60565b60405180910390fd5b600480811115610e1057610e0f6119e7565b5b816004811115610e2357610e226119e7565b5b1415610e64576040517f08c379a0000000000000000000000000000000000000000000000000000000008152600401610e5b90611bf2565b60405180910390fd5b5b50565b6000807f7fffffffffffffffffffffffffffffff5d576e7357a4501ddfe92f46681b20a08360001c1115610ea3576000600391509150610f6c565b601b8560ff1614158015610ebb5750601c8560ff1614155b15610ecd576000600491509150610f6c565b600060018787878760405160008152602001604052604051610ef29493929190611c3d565b6020604051602081039080840390855afa158015610f14573d6000803e3d6000fd5b505050602060405103519050600073ffffffffffffffffffffffffffffffffffffffff168173ffffffffffffffffffffffffffffffffffffffff161415610f6357600060019250925050610f6c565b80600092509250505b94509492505050565b600080fd5b600080fd5b600073ffffffffffffffffffffffffffffffffffffffff82169050919050565b6000610faa82610f7f565b9050919050565b610fba81610f9f565b8114610fc557600080fd5b50565b600081359050610fd781610fb1565b92915050565b6000819050919050565b610ff081610fdd565b8114610ffb57600080fd5b50565b60008135905061100d81610fe7565b92915050565b600080fd5b600080fd5b600080fd5b60008083601f84011261103857611037611013565b5b8235905067ffffffffffffffff81111561105557611054611018565b5b6020830191508360018202830111156110715761107061101d565b5b9250929050565b6000806000806060858703121561109257611091610f75565b5b60006110a087828801610fc8565b94505060206110b187828801610ffe565b935050604085013567ffffffffffffffff8111156110d2576110d1610f7a565b5b6110de87828801611022565b925092505092959194509250565b600080fd5b60006101608284031215611108576111076110ec565b5b81905092915050565b6000819050919050565b61112481611111565b811461112f57600080fd5b50565b6000813590506111418161111b565b92915050565b6000806000806080858703121561116157611160610f75565b5b600085013567ffffffffffffffff81111561117f5761117e610f7a565b5b61118b878288016110f1565b945050602061119c87828801611132565b93505060406111ad87828801610fc8565b92505060606111be87828801610ffe565b91505092959194509250565b6000602082840312156111e0576111df610f75565b5b60006111ee84828501610fc8565b91505092915050565b600061120282610f7f565b9050919050565b611212816111f7565b811461121d57600080fd5b50565b60008135905061122f81611209565b92915050565b6000806040838503121561124c5761124b610f75565b5b600061125a85828601611220565b925050602061126b85828601610ffe565b9150509250929050565b61127e81610f9f565b82525050565b60006020820190506112996000830184611275565b92915050565b6112a881610fdd565b82525050565b60006020820190506112c3600083018461129f565b92915050565b6000819050919050565b60006112ee6112e96112e484610f7f565b6112c9565b610f7f565b9050919050565b6000611300826112d3565b9050919050565b6000611312826112f5565b9050919050565b61132281611307565b82525050565b600060208201905061133d6000830184611319565b92915050565b60008083601f84011261135957611358611013565b5b8235905067ffffffffffffffff81111561137657611375611018565b5b6020830191508360208202830111156113925761139161101d565b5b9250929050565b60008083601f8401126113af576113ae611013565b5b8235905067ffffffffffffffff8111156113cc576113cb611018565b5b6020830191508360208202830111156113e8576113e761101d565b5b9250929050565b6000806000806040858703121561140957611408610f75565b5b600085013567ffffffffffffffff81111561142757611426610f7a565b5b61143387828801611343565b9450945050602085013567ffffffffffffffff81111561145657611455610f7a565b5b61146287828801611399565b925092505092959194509250565b600080fd5b600080fd5b600080fd5b6000808335600160200384360303811261149c5761149b611470565b5b80840192508235915067ffffffffffffffff8211156114be576114bd611475565b5b6020830192506001820236038313156114da576114d961147a565b5b509250929050565b600081905092915050565b50565b60006114fd6000836114e2565b9150611508826114ed565b600082019050919050565b600061151e826114f0565b9150819050919050565b611531816111f7565b82525050565b600060408201905061154c6000830185611528565b611559602083018461129f565b9392505050565b60008151905061156f81610fe7565b92915050565b60006020828403121561158b5761158a610f75565b5b600061159984828501611560565b91505092915050565b600082825260208201905092915050565b7f77726f6e67206172726179206c656e6774687300000000000000000000000000600082015250565b60006115e96013836115a2565b91506115f4826115b3565b602082019050919050565b60006020820190508181036000830152611618816115dc565b9050919050565b7f4e487b7100000000000000000000000000000000000000000000000000000000600052603260045260246000fd5b7f4e487b7100000000000000000000000000000000000000000000000000000000600052601160045260246000fd5b600061168882610fdd565b91507fffffffffffffffffffffffffffffffffffffffffffffffffffffffffffffffff8214156116bb576116ba61164e565b5b600182019050919050565b7f6f6e6c79206f776e657200000000000000000000000000000000000000000000600082015250565b60006116fc600a836115a2565b9150611707826116c6565b602082019050919050565b6000602082019050818103600083015261172b816116ef565b9050919050565b600081519050919050565b60005b8381101561175b578082015181840152602081019050611740565b8381111561176a576000848401525b50505050565b600061177b82611732565b61178581856114e2565b935061179581856020860161173d565b80840191505092915050565b60006117ad8284611770565b915081905092915050565b7f77616c6c65743a206e6f742066726f6d20456e747279506f696e740000000000600082015250565b60006117ee601b836115a2565b91506117f9826117b8565b602082019050919050565b6000602082019050818103600083015261181d816117e1565b9050919050565b7f77616c6c65743a2077726f6e67207369676e6174757265000000000000000000600082015250565b600061185a6017836115a2565b915061186582611824565b602082019050919050565b600060208201905081810360008301526118898161184d565b9050919050565b60006bffffffffffffffffffffffff82169050919050565b60006118b382611890565b91506bffffffffffffffffffffffff8214156118d2576118d161164e565b5b600182019050919050565b7f77616c6c65743a20696e76616c6964206e6f6e63650000000000000000000000600082015250565b60006119136015836115a2565b915061191e826118dd565b602082019050919050565b6000602082019050818103600083015261194281611906565b9050919050565b600081905092915050565b7f19457468657265756d205369676e6564204d6573736167653a0a333200000000600082015250565b600061198a601c83611949565b915061199582611954565b601c82019050919050565b6000819050919050565b6119bb6119b682611111565b6119a0565b82525050565b60006119cc8261197d565b91506119d882846119aa565b60208201915081905092915050565b7f4e487b7100000000000000000000000000000000000000000000000000000000600052602160045260246000fd5b7f45434453413a20696e76616c6964207369676e61747572650000000000000000600082015250565b6000611a4c6018836115a2565b9150611a5782611a16565b602082019050919050565b60006020820190508181036000830152611a7b81611a3f565b9050919050565b7f45434453413a20696e76616c6964207369676e6174757265206c656e67746800600082015250565b6000611ab8601f836115a2565b9150611ac382611a82565b602082019050919050565b60006020820190508181036000830152611ae781611aab565b9050919050565b7f45434453413a20696e76616c6964207369676e6174757265202773272076616c60008201527f7565000000000000000000000000000000000000000000000000000000000000602082015250565b6000611b4a6022836115a2565b9150611b5582611aee565b604082019050919050565b60006020820190508181036000830152611b7981611b3d565b9050919050565b7f45434453413a20696e76616c6964207369676e6174757265202776272076616c60008201527f7565000000000000000000000000000000000000000000000000000000000000602082015250565b6000611bdc6022836115a2565b9150611be782611b80565b604082019050919050565b60006020820190508181036000830152611c0b81611bcf565b9050919050565b611c1b81611111565b82525050565b600060ff82169050919050565b611c3781611c21565b82525050565b6000608082019050611c526000830187611c12565b611c5f6020830186611c2e565b611c6c6040830185611c12565b611c796060830184611c12565b9594505050505056fea26469706673582212207d24747ab0bcb5b1358bb3a09935c99af99665d276ad167c724d92598653e39264736f6c634300080c0033",
  "linkReferences": {},
  "deployedLinkReferences": {}
}